:100000000C942A000C9443020C949D020C9447001B
:100010000C9447000C9447000C9447000C94470044
:100020000C9447000C9447000C9401010C94470079
:100030000C9447000C9447000C9447000C94470024
:100040000C9447000C9447000C9447000C94470014
:100050000C94470011241FBECFE5D8E0DEBFCDBF12
:1000600010E0A0E6B0E0E6E7F4E102C005900D92F2
:10007000A63FB107D9F711E0A6EFB0E001C01D928D
:10008000A234B107E1F70E9444010C94390A0C94A0
:1000900000006091710070917200809173009091E6
:1000A00074006F5F7F4F8F4F9F4F6093710070930D
:1000B000720080937300909374002091F7002223C4
:1000C00079F42091FC003091FD004091FE005091A8
:1000D000FF00621B730B840B950B42E00E9400072C
:1000E000089582B392E0892782BB9698959A21E081
:1000F0002093F7008091710090917200A09173009D
:10010000B09174008093F8009093F900A093FA00E6
:10011000B093FB002093F6000E94ED0182EC90E08A
:100120000E943E020E94E5010E94D90108958BB30E
:1001300092E089278BBB9598969A1092F700809150
:10014000710090917200A0917300B091740080933F
:10015000FC009093FD00A093FE00B093FF0010926E
:10016000F8001092F9001092FA001092FB000E9421
:10017000E9018DEC90E00E9439020E94DD010E94AD
:10018000E101089582B390E1892782BB81E790E085
:100190000E943E020E94350208958BB391E08927A8
:1001A0008BBB87E990E00E9439020E9431020895DA
:1001B0008091F6008823C1F06091F8007091F900F9
:1001C0008091FA009091FB002091FC003091FD009D
:1001D0004091FE005091FF00621B730B840B950B46
:1001E0000E945F051092F60008950E94B9038823CB
:1001F00021F00E949F030E94530508950E94AA06C1
:1002000008951F920F920FB60F9211242F933F93D0
:100210004F935F936F937F938F939F93AF93BF930E
:10022000EF93FF930E946B05FF91EF91BF91AF9108
:100230009F918F917F916F915F914F913F912F91FE
:100240000F900FBE0F901F90189583B7886083BFE3
:100250008DE78CBF89B7826089BF83B7836083BF16
:10026000089585B5886085BD85B5806185BD85B5F6
:10027000816085BD8AE683BD8F9A089581B38066CB
:1002800081BB959A969808950F938C9A899AD09AE3
:10029000D19A949A919AD89AD99AD8988FEF94E350
:1002A000ACE081509040A040E1F700C00000D99838
:1002B0008FEF94E3ACE081509040A040E1F700C0A4
:1002C00000000E9425010E9431010E943E010E940F
:1002D000A10681E790E04AE050E060E070E021E0B4
:1002E00000E00E94F1018DEC90E00E94390282EC66
:1002F00090E00E943E020E94590380E690E00E9436
:1003000027030E94980380E064E04EEF50E020E075
:1003100030E00E94A30581E06AE049E450E020E07B
:1003200030E00E94A30582E068E245EF50E020E063
:1003300030E00E94A30583E064E148ED50E020E056
:1003400030E00E94A30560E070E0CB0143E00E9432
:1003500000078FEF99E6A8E181509040A040E1F7B7
:1003600000C000000E94450360E070E0CB0140E067
:100370000E94CC0394988FEF94E3ACE081509040BE
:10038000A040E1F700C0000091988FEF94E3ACE04B
:1003900081509040A040E1F700C00000949A919AEB
:1003A000D89AD99A78940E94040680E090E00F9140
:1003B00008958BB780648BBF08958BB78F7B8BBFFD
:1003C00008958BB780688BBF08958BB78F778BBFED
:1003D000089585B78C7F85BF089585B7837F85BFD6
:1003E0000895AF92BF92CF92DF92EF92FF920F9358
:1003F000DF93CF930F92CDB7DEB75C016A017B012B
:1004000029830E94E9010E94ED012981222319F02C
:100410000E94D90102C00E94DD01002319F00E9450
:10042000E10102C00E94E50181B3837F81BB82B3F9
:10043000837F82BBB0920101A0920001C0920601AD
:10044000D0920701E0920801F09209010F90CF913C
:10045000DF910F91FF90EF90DF90CF90BF90AF9022
:10046000089585B7836085BF089585B78C6085BF83
:1004700008959093110180931001089590930B01BA
:1004800080930A0108951F920F920FB60F921124C4
:10049000EF92FF920F931F932F933F934F935F938E
:1004A0006F937F938F939F93AF93BF93EF93FF933C
:1004B000E0910001F091010180819181A281B381DD
:1004C00020910C0130910D0140910E0150910F01CE
:1004D0007C018D01E21AF30A040B150B2091060131
:1004E000309107014091080150910901E216F3068D
:1004F0000407150768F080930C0190930D01A093F9
:100500000E01B0930F01E0911001F09111010995D6
:10051000FF91EF91BF91AF919F918F917F916F91DB
:100520005F914F913F912F911F910F91FF90EF900D
:100530000F900FBE0F901F9018951F920F920FB63D
:100540000F921124EF92FF920F931F932F933F93DB
:100550004F935F936F937F938F939F93AF93BF93CB
:10056000EF93FF93E0910001F0910101808191816F
:10057000A281B381209102013091030140910401D5
:10058000509105017C018D01E21AF30A040B150B51
:100590002091060130910701409108015091090115
:1005A000E216F3060407150768F0809302019093A2
:1005B0000301A0930401B0930501E0910A01F091B9
:1005C0000B010995FF91EF91BF91AF919F918F9191
:1005D0007F916F915F914F913F912F911F910F915B
:1005E000FF90EF900F900FBE0F901F90189580FF17
:1005F00002C0DC9A01C0DC9881FF02C0DD9A01C014
:10060000DD9882FF02C0DE9A01C0DE9883FF02C03F
:10061000DF9A0895DF9808951F93182FDB9A82952B
:100620008F700E94F702DB98DB9A812F0E94F702FD
:10063000DB9885E88A95F1F700001F910895DA9814
:100640000E940C030895DA9A0E940C030895EF9219
:10065000FF92CF93DF93E82EE7017E01F92EE701A9
:1006600002C00E94230389918823D9F7DF91CF919B
:10067000FF90EF9008956295660F660F607C680F9B
:10068000862F80680E941F03089581E00E941F0347
:100690008FE99FE00197F1F700C00000089582E024
:1006A0000E941F038FE99FE00197F1F700C000004F
:1006B00008951F93D49AD59AD69AD79AD39AD29A54
:1006C0008FE295E70197F1F700C00000DA98DB9818
:1006D00013E0DB9A83E00E94F702DB988FE097E259
:1006E0000197F1F700C00000115099F7DB9A82E002
:1006F0000E94F702DB988FEC97E00197F1F700C0BA
:10070000000088E20E941F0388E00E941F0381E02E
:100710000E941F038FE99FE00197F1F700C00000DE
:1007200086E00E941F038CE00E941F031F91089522
:1007300084B38F7084BB85B3806F85BB089523B36A
:1007400030E020953095207F307054E03595279526
:100750005A95E1F780E090E020FF02C08F5F089596
:1007600001968430910519F035952795F5CF80E0F5
:10077000089593B3907F81E0903F09F480E008955D
:100780000E94B903882339F00E949F0390E0909360
:100790001301809312010895AF92BF92CF92DF921E
:1007A000EF92FF920F931F93DF93CF93CDB7DEB7F6
:1007B000C055D0400FB6F894DEBF0FBECDBF5B0171
:1007C0006C0140931401842F83508230D8F48091BF
:1007D000E0009091E100A091E200B091E30044308C
:1007E00021F40196A11DB11D03C00197A109B10912
:1007F0008093E0009093E100A093E200B093E300C7
:10080000109215016091E0007091E1008091E2008A
:100810009091E30024E630E040E050E00E9436078B
:100820008E01075D1F4F6A3071058105910590F4B7
:10083000ADB7BEB750970FB6F894BEBF0FBEADBFF1
:10084000EDB7FEB7319612961C930E931197A5E75C
:10085000B0E011C0ADB7BEB750970FB6F894BEBFA9
:100860000FBEADBFEDB7FEB7319612961C930E9337
:100870001197A9E8B0E0B383A283A091E600BB275B
:10088000A7FDB095B583A48326833783408751871E
:1008900062877387848795878091E500992787FD14
:1008A0009095978786870E945807EDB7FEB7709698
:1008B0000FB6F894FEBF0FBEEDBF80911401982FC4
:1008C0009150923010F48093E400E090E400A11481
:1008D000B104C104D10409F48CC06091E0007091AE
:1008E000E1008091E2009091E30028E631E040E0F1
:1008F00050E00E940B07A60195010E9436078E0169
:100900000F5F1F4FFE2DF13049F58DB79EB70E9743
:100910000FB6F8949EBF0FBE8DBFEDB6FEB608941D
:10092000E11CF11CADB7BEB712961C930E93119744
:100930008CE990E0F70193838283CA01B90124E630
:1009400030E040E050E00E943607D70114962D9326
:100950003D934D935C931797F70135C0CA01B901D8
:100960002EE330E040E050E00E940B0724E6C22E68
:10097000D12CE12CF12CA70196010E943607ADB7CE
:10098000BEB71E970FB6F894BEBF0FBEADBFADB6D3
:10099000BEB60894A11CB11C12961C930E9311971D
:1009A00081EB90E0F50193838283CA01B901A7012D
:1009B00096010E943607D50114962D933D934D93D1
:1009C0005C931797F5016087718782879387809181
:1009D000E500992787FD9095958784870E945807A1
:1009E0008DB79EB70E960FB6F8949EBF0FBE8DBF03
:1009F00036C08E010F5F1F4F9E2D913079F400D0CD
:100A000000D000D0EDB7FEB73196ADB7BEB71296A5
:100A10001C930E93119786EC90E00EC000D000D08E
:100A200000D0EDB7FEB73196ADB7BEB712961C93A6
:100A30000E93119783ED90E0938382838091E5007C
:100A4000992787FD9095958384830E945807EDB779
:100A5000FEB736960FB6F894FEBF0FBEEDBF0E94EC
:100A6000450380E060E00E943B03CE0101960E94B6
:100A7000270380E061E00E943B03CE0189960E943B
:100A80002703C05BDF4F0FB6F894DEBF0FBECDBFAC
:100A9000CF91DF911F910F91FF90EF90DF90CF905A
:100AA000BF90AF900895482F6091E7007091E800E3
:100AB0008091E9009091EA000E94CC030895609330
:100AC000E7007093E8008093E9009093EA0040E02B
:100AD0000E94CC030895CF93DF93C0E0D0E0FE01E5
:100AE00083E0EE0FFF1F8A95E1F7EC0FFD1FE85E34
:100AF000FE4F85819681A781B0850196A11DB11D0C
:100B000085839683A783B087658176818781908569
:100B1000248130E040E050E00E9436076115710505
:100B20008105910549F48091160190911701019674
:100B300090931701809316012196C430D10579F660
:100B4000DF91CF91089590E0FC0173E0EE0FFF1F5D
:100B50007A95E1F7E80FF91FE85EFE4F5183408375
:100B60003383228364831582168217821086089548
:100B70008091EB008F3F81F08091EB00992787FDFA
:100B80009095FC01A3E0EE0FFF1FAA95E1F7E80F97
:100B9000F91FE85EFE4F148208952091EB002F3F6D
:100BA00011F12091EB00332727FD3095F90143E047
:100BB000EE0FFF1F4A95E1F7E20FF31FE85EFE4FCD
:100BC000918380838091EB00992787FD9095FC01AC
:100BD000B3E0EE0FFF1FBA95E1F7E80FF91FE85EEB
:100BE000FE4F73836283089590E0FC01A3E0EE0F53
:100BF000FF1FAA95E1F7E80FF91FE85EFE4F71832A
:100C000060835383428308951F93CF93DF931FEF35
:100C100080911601909117010097D1F3F89460E04C
:100C200070E0DB0143E0AA0FBB1F4A95E1F7A60F76
:100C3000B71FA85EBE4FED01249614968C911497B1
:100C4000882359F1FD01359615962D913D914D91D1
:100C50005C91189714968C9190E0A0E0B0E0281772
:100C600039074A075B07C8F080819181A281B3816F
:100C70002881821B9109A109B10980839183A283F4
:100C8000B3836093EB008091160190911701019757
:100C9000909317018093160106C06F5F7F4F6430F9
:100CA000710509F0BECF78948091EB0087FDB0CF3D
:100CB0008091EB00992787FD9095FC0133E0EE0FC2
:100CC000FF1F3A95E1F7E80FF91FE85EFE4F01902C
:100CD000F081E02D8091EB00992787FD9095DC0154
:100CE00023E0AA0FBB1F2A95E1F7A80FB91FA85E42
:100CF000BE4F12968D919C91139709951093EB001E
:100D000087CF582F262F842F5430D0F495B39F606F
:100D100095BB6AE00E942A07E92FF0E0E451FF4FFB
:100D2000808188BB2111C79885B321E030E002C0E3
:100D3000220F331F5A95E2F72095206F282325BBF9
:100D400008958FEF87BB18BA84B38F6084BB85B3D7
:100D500085BB08951F938091410190E001968370B7
:100D60009070282F80934101882341F080914001A9
:100D700011E0281310E02130E1F40BC020913C0178
:100D800030913D0140913E0150913F0180E060E093
:100D900032C060913C0170913D0180913E01909183
:100DA0003F012AE030E040E050E00E94360781E059
:100DB00021C0223081F460913C0170913D0180910D
:100DC0003E0190913F0124E630E040E050E00E9477
:100DD000360782E00FC060913C0170913D01809127
:100DE0003E0190913F0128EE33E040E050E00E9448
:100DF000360783E0612F422F0E9481061F910895DC
:100E000060933C0170933D0180933E0190933F01BC
:100E1000409340010895629FD001739FF001829F2B
:100E2000E00DF11D649FE00DF11D929FF00D839F79
:100E3000F00D749FF00D659FF00D9927729FB00D16
:100E4000E11DF91F639FB00DE11DF91FBD01CF0129
:100E500011240895991B79E004C0991F961708F092
:100E6000961B881F7A95C9F780950895A1E21A2EDE
:100E7000AA1BBB1BFD010DC0AA1FBB1FEE1FFF1F3E
:100E8000A217B307E407F50720F0A21BB30BE40B8E
:100E9000F50B661F771F881F991F1A9469F76095D5
:100EA0007095809590959B01AC01BD01CF0108958F
:100EB000AEE0B0E0EEE5F7E00C94100A0D891E8973
:100EC00086E08C831A8309838FEF9FE79E838D834F
:100ED0009E01275E3F4FCE0101966F89788DA90153
:100EE0000E947B07EF81F885E00FF11F10822E969C
:100EF000E4E00C942C0AACE0B0E0E1E8F7E00C94FC
:100F0000020A6C011B018A01FC011782168283818F
:100F100081FFD1C12E010894411C511CF60193811F
:100F2000F10193FD859193FF81911F01882309F4BD
:100F3000BEC1853239F493FD859193FF81911F01E4
:100F4000853229F490E0B6010E947809E7CFEE24BB
:100F5000FF2420E02032B0F48B3269F08C3228F488
:100F6000803251F0833271F40BC08D3239F080330E
:100F700049F421602CC02260246029C0286027C069
:100F8000206125C027FD2CC0382F30533A3098F40B
:100F900026FF08C08E2D880FE82EEE0CEE0CE80E12
:100FA000E30E15C08F2D880FF82EFF0CFF0CF80EE6
:100FB000F30E20620CC08E3221F426FD78C120642D
:100FC00006C08C3611F4206802C0883649F4F1015D
:100FD00093FD859193FF81911F01882309F0BACF7A
:100FE000982F9554933018F09052933028F40C5F5A
:100FF0001F4FFFE3F9830DC0833631F0833771F063
:10100000833509F060C022C0F801808189830E5FBA
:101010001F4F420171E0A72EB12C16C062E0662E70
:10102000712C600E711EF8018080918026FF03C034
:101030006E2D70E002C06FEF7FEFC4012C870E941D
:101040006D095C0183012C852F7717C052E0652E56
:10105000712C600E711EF8018080918026FF03C004
:101060006E2D70E002C06FEF7FEFC4012C870E94ED
:1010700062095C012C852068830123FD20C008C023
:1010800080E290E0B6012C870E947809FA942C85C2
:101090008F2D90E0A816B90698F311C0F40127FD32
:1010A000859127FF81914F0190E0B6012C870E9426
:1010B00078092C85F110FA940894A108B108A114BC
:1010C000B10461F7F1C0843611F0893649F527FF84
:1010D00008C0F80160817181828193810C5F1F4F8C
:1010E00009C0F80160817181882777FD8095982F6C
:1010F0000E5F1F4F4FE6B42EB22297FF09C09095A6
:101100008095709561957F4F8F4F9F4FF0E8BF2A74
:10111000A2012AE030E00E94A409782E741845C08C
:10112000853731F43FEEB32EB2222AE030E025C0FD
:1011300099EFB92EB2228F36C1F0803720F488356E
:1011400009F0B5C00DC0803721F0883709F0AFC075
:1011500002C020E1B22AB4FE0BC084E0B82A08C065
:10116000B4FE09C0E6E0BE2A06C028E030E005C0B3
:1011700020E130E002C020E132E0B7FE08C0F80113
:1011800060817181828193810C5F1F4F07C0F801DC
:101190006081718180E090E00E5F1F4FA2010E948C
:1011A000A409782E7418FFE7BF22B6FE0BC02EEFFD
:1011B000B2227E1438F4B4FE07C0B2FC05C08FEE34
:1011C000B82202C0A72C01C0AE2C8B2D90E0B4FE3B
:1011D0000DC0FE01E70DF11D2081203319F4E9EE69
:1011E000BE2209C0A394B2FE06C004C086789070E7
:1011F000009709F0A3948B2C9924B3FC14C0B0FE83
:101200000FC0AF1428F4E72CEF0CEA18AF2C08C07D
:10121000E72C06C080E290E0B6010E947809A39412
:10122000AF14C0F304C0AF1410F4FA1801C0FF24C7
:1012300084FE0FC080E390E0B6010E94780982FE30
:101240001FC081FE03C088E590E010C088E790E0F1
:101250000DC0C40186789070009791F081FC02C0A7
:1012600080E201C08BE2B7FC8DE290E0B6010E9403
:10127000780906C080E390E0B6010E947809EA94FC
:101280007E14C0F37A94F201E70DF11D808190E0A5
:10129000B6010E9478097720A9F706C080E290E0A5
:1012A000B6010E947809FA94FF20C1F737CEF60103
:1012B0002681378102C02FEF3FEFC9012C96E2E172
:1012C0000C941E0AFC010590615070400110D8F783
:1012D000809590958E0F9F1F0895FC01615070407E
:1012E00001900110D8F7809590958E0F9F1F08955B
:1012F0000F931F93CF93DF938C01EB018B8181FFC1
:101300001BC082FF0DC02E813F818C819D812817DB
:10131000390764F4E881F9810193F983E88306C011
:10132000E885F985802F0995009731F48E819F819A
:1013300001969F838E8302C00FEF1FEFC801DF91DC
:10134000CF911F910F910895FA01AA27283051F1EA
:10135000203181F1E8946F936E7F6E5F7F4F8F4FE6
:101360009F4FAF4FB1E03ED0B4E03CD0670F781F45
:10137000891F9A1FA11D680F791F8A1F911DA11D2A
:101380006A0F711D811D911DA11D20D009F4689463
:101390003F912AE0269F11243019305D3193DEF60B
:1013A000CF010895462F4770405D4193B3E00FD0C1
:1013B000C9F7F6CF462F4F70405D4A3318F0495DAC
:1013C00031FD4052419302D0A9F7EACFB4E0A6958F
:1013D0009795879577956795BA95C9F700976105B1
:1013E000710508959B01AC010A2E06945795479507
:1013F00037952795BA95C9F7620F731F841F951FFC
:10140000A01D08952F923F924F925F926F927F920C
:101410008F929F92AF92BF92CF92DF92EF92FF9204
:101420000F931F93CF93DF93CDB7DEB7CA1BDB0BB0
:101430000FB6F894DEBF0FBECDBF09942A88398855
:1014400048885F846E847D848C849B84AA84B9845C
:10145000C884DF80EE80FD800C811B81AA81B98168
:10146000CE0FD11D0FB6F894DEBF0FBECDBFED017C
:061470000895F894FFCF7F
:1014760050686F746F63656C6C2076302E30303137
:10148600000B000000646973743A202563256C75AF
:101496002E30256C756D256300646973743A2025BA
:1014A60063256C752E256C756D256300256C752E70
:1014B6002530326C75202563206B7068206D70684E
:1014C60000256C752E2530326C75206B70682025D2
:1014D60063206D70680030202563206B7068206D76
:1014E60070680030206B7068202563206D7068007E
:1014F600E8030000013E3C64000000FFC0F9A4B010
:06150600999282F880902A
:00000001FF
