:100000000C942A000C94F7000C941E010C944700E9
:100010000C9447000C9447000C9447000C94470044
:100020000C9447000C9447000C9447000C94470034
:100030000C9447000C9447000C9447000C94470024
:100040000C9447000C9447000C9447000C94470014
:100050000C94470011241FBECFE5D8E0DEBFCDBF12
:1000600010E0A0E6B0E0EEE4F0E102C005900D92F1
:10007000A83EB107D9F711E0A8EEB0E001C01D928B
:10008000AD34B107E1F70E94C0040C9425080C942C
:1000900000008091F1009091F200A091F300B091E6
:1000A000F4008093ED009093EE00A093EF00B093E6
:1000B000F0001092E9001092EA001092EB0010920A
:1000C000EC001092600008958091F1009091F20090
:1000D000A091F300B091F4008093E9009093EA00BE
:1000E000A093EB00B093EC0081E0809360008093DC
:1000F000E80008950C9455040F931F938091F1002C
:100100009091F200A091F300B091F4000196A11D2E
:10011000B11D8093F1009093F200A093F300B0938F
:10012000F40020916000211115C04091ED00509124
:10013000EE006091EF007091F0008C019D01041BB6
:10014000150B260B370BC901B80142E01F910F9127
:100150000C94B5041F910F9108950E941C028823EE
:1001600021F00E94EB010C94450308950F931F9317
:100170008091E8008823C1F06091E9007091EA0065
:100180008091EB009091EC000091ED001091EE0059
:100190002091EF003091F000601B710B820B930BEC
:1001A0000E9442031092E8001F910F91089583B7B7
:1001B000886083BF8AEF8CBF89B7826089BF83B7AD
:1001C000836083BF089585B78C6085BF85B78360E2
:1001D00085BF8BB7806C8BBF08959093F800809398
:1001E000F70008959093F6008093F50008951F920C
:1001F0000F920FB60F9211242F933F934F935F935B
:100200006F937F938F939F93AF93BF93EF93FF93DE
:10021000E091F700F091F8000995FF91EF91BF91FF
:10022000AF919F918F917F916F915F914F913F918E
:100230002F910F900FBE0F901F9018951F920F9245
:100240000FB60F9211242F933F934F935F936F93A9
:100250007F938F939F93AF93BF93EF93FF93E0911F
:10026000F500F091F6000995FF91EF91BF91AF91E4
:100270009F918F917F916F915F914F913F912F91BE
:100280000F900FBE0F901F90189581B3806381BBB4
:1002900082B38F7C82BB089582B390E1892782BBB1
:1002A000089582B390E2892782BB089580FF02C03F
:1002B000DC9A01C0DC9881FF02C0DD9A01C0DD98A4
:1002C00082FF02C0DE9A01C0DE9883FF02C0DF9A7F
:1002D0000895DF980895CF93C82FDB9A82958F7089
:1002E0000E945601DB98DB9A8C2F0E945601DB9806
:1002F00087EC90E00197F1F700C00000CF910895DE
:10030000DA980C946B01DA9A0C946B01CF93DF931B
:10031000EC018991882319F00E948301FACFDF91C3
:10032000CF91089590E4699F800D112480680C940A
:10033000800181E00E9480018FE39FE10197F1F746
:1003400000C00000089582E00E9480018FE39FE1D9
:100350000197F1F700C000000895CF93D49AD59A81
:10036000D69AD79AD39AD29A8FE59AEE0197F1F757
:1003700000C00000DA98DB98C3E0DB9A83E00E94BB
:100380005601DB988FE19EE40197F1F700C0000071
:10039000C15099F7DB9A82E00E945601DB988FE901
:1003A0009FE00197F1F700C0000088E20E94800101
:1003B00088E00E94800181E00E9480018FE39FE13C
:1003C0000197F1F700C0000086E00E9480018CE0F8
:1003D000CF910C94800115BA8FE084BB20EF25BB30
:1003E00093B315BA24BB85BB43B340954F7020E04F
:1003F00030E0842F817040FF02C0822F06C04695F6
:100400002F5F3F4F24303105A1F792959F70909553
:100410009F7020E030E0492F417090FF02C0422FD2
:1004200006C096952F5F3F4F24303105A1F7880F06
:10043000880F8F5F840F089515BA8FE084BB90EF0B
:1004400095BB23B315BA94BB85BB83B38F708F3034
:1004500039F4922F907F81E0903F19F480E0089565
:1004600081E008950E941C02882339F00E94EB016C
:1004700090E09093FA008093F9000895BF92CF9294
:10048000DF92EF92FF920F931F93CF93DF93CDB73D
:10049000DEB7C155D1090FB6F894DEBF0FBECDBF90
:1004A0006B017C01B42E4093FC002DEF240F62966B
:1004B0002FAF62978E01075D1F4F61157105810592
:1004C000910509F456C0609164007091650080E068
:1004D00090E0A70196010E942305A9EDBAE00E94D1
:1004E000F80424E630E040E050E00E942305C90112
:1004F000309363002093620062966FAD6297623022
:1005000010F4B092610060916100633071F41F9249
:100510002EE72F9364E670E00E940F059F938F9360
:100520007F936F9381E790E018C06EE3629FC001F4
:10053000639F900D112424E630E0B9010E940F055D
:10054000CB011F924EE74F93B9010E940F059F9375
:100550008F937F936F9384E890E09F938F931F9383
:100560000F930E9454050FB6F894DEBF0FBECDBFA7
:1005700022C062963FAD6297323010F44093610022
:1005800080916100833031F41F928EE78F9386E96A
:1005900090E005C01F928EE78F9389EA90E09F93C9
:1005A0008F931F930F930E9454050F900F900F90FD
:1005B0000F900F900F902091FC0089EF820F8230F6
:1005C00078F48091640090916500273011F40196D1
:1005D00001C0019790936500809364001092FB0026
:1005E000809164009091650064E670E00E940F05C0
:1005F0009E012F5F3F4F79018A30910568F41F9269
:100600002EE72F939F938F937F936F931F928FE784
:100610008F938BEB90E00CC01F922EE72F939F934C
:100620008F937F936F931F928FE78F9382ED90E06C
:100630009F938F93FF92EF920E9454050FB6F89408
:10064000DEBF0FBECDBF60E380E30E949201C80110
:100650000E94860161E380E30E949201C7010E942B
:100660008601CF5ADF4F0FB6F894DEBF0FBECDBF65
:10067000DF91CF911F910F91FF90EF90DF90CF907E
:10068000BF90089540E00C943E02482F60E070E077
:10069000CB010C943E021F93CF93DF93C0E0D0E0D8
:1006A00019E01C9FF0011D9FF00D1124E350FF4F36
:1006B00085819681A781B0850196A11DB11D858395
:1006C0009683A783B0876581768187819085248111
:1006D00030E040E050E00E942305672B682B692B37
:1006E00049F480914501909146010196909346010D
:1006F000809345012196C830D10599F6DF91CF91BD
:100700001F91089599E0899FF0011124E350FF4F54
:100710005183408333832283648315821682178238
:1007200010860895809166008F3F49F0E091660041
:1007300089E0E802F0011124E350FF4F148208958C
:10074000209166002F3FA1F03091660029E032032E
:10075000D0011124A350BF4F11969C938E933091DA
:1007600066003203F0011124E350FF4F738362836C
:10077000089599E0899FF0011124E350FF4F7183A0
:10078000608353834283089519E00FEF8091450100
:1007900090914601892BD1F3F89420E030E0129F2C
:1007A000D001139FB00D1124A350BF4FED0124962B
:1007B00014968C911497882359F1FD01359615965E
:1007C0004D915D916D917C91189714968C9190E06C
:1007D000A0E0B0E0481759076A077B07C8F080819E
:1007E0009181A281B3813881831B9109A109B1094B
:1007F00080839183A283B383209366008091450117
:10080000909146010197909346018093450105C060
:100810002F5F3F4F2830310511F6789480916600A4
:1008200087FDB4CF209166002103F0011124E3502D
:10083000FF4F0190F081E02D209166002103D0014F
:100840001124A350BF4F12968D919C911397099537
:10085000009366009BCF582F262F842F98B39F605C
:1008600098BB6AE00E940305E92FF0E0E959FF4FC9
:1008700080818BBB222319F09BB39F679BBB88B3FE
:1008800021E030E0052E01C0220F0A94EAF72095FE
:10089000206F282328BB08958FEF8ABB1BBA87B32C
:1008A0008F6087BB88B388BB0895CF938091470141
:1008B0008F5F80934701882309F441C0C1E0909184
:1008C00048018913C0E0813091F460914901709131
:1008D0004A0180914B0190914C0124E630E040E0C8
:1008E00050E00E942305422F6C2F81E039C08230F6
:1008F00091F46091490170914A0180914B0190916E
:100900004C0128EE33E040E050E00E942305422FE6
:100910006C2F82E025C0833031F5609149017091E0
:100920004A0180914B0190914C0120E137E240E077
:1009300050E00E942305422F6C2F83E011C060918C
:10094000490170914A0180914B0190914C012AE03C
:1009500030E040E050E00E942305422F60E080E05C
:10096000CF910C942B04CF9108956093490170931B
:100970004A0180934B0190934C01409348010895A4
:100980000E94AD010E9445010E94E3000E944C04B8
:100990000E94D70089E490E00E94ED0084E690E098
:1009A0000E94F20020E030E04AE750E064E081E09D
:1009B0000E94820320E030E04CE750E06AE082E0F1
:1009C0000E94820320E030E04DEA50E068E283E0DC
:1009D0000E94820320E030E046EB50E064E184E0D6
:1009E0000E94820378940E94C40380E090E00895FE
:1009F0000E944505A59F900DB49F900DA49F800D6A
:100A0000911D11240895991B79E004C0991F961730
:100A100008F0961B881F7A95C9F780950895AA1B40
:100A2000BB1B51E107C0AA1FBB1FA617B70710F0D9
:100A3000A61BB70B881F991F5A95A9F7809590950B
:100A4000BC01CD010895A1E21A2EAA1BBB1BFD011A
:100A50000DC0AA1FBB1FEE1FFF1FA217B307E4079D
:100A6000F50720F0A21BB30BE40BF50B661F771FF5
:100A7000881F991F1A9469F76095709580959095D5
:100A80009B01AC01BD01CF010895A29FB001B39FAE
:100A9000C001A39F700D811D1124911DB29F700D87
:100AA000811D1124911D0895AEE0B0E0EAE5F5E066
:100AB0000C94FC070D891E8986E08C831A830983B8
:100AC0008FEF9FE79E838D83AE01475E5F4F6F89F7
:100AD000788DCE0101960E947605EF81F885E00FB2
:100AE000F11F10822E96E4E00C941808ACE0B0E000
:100AF000ECE7F5E00C94EE077C016B018A01FC0148
:100B000017821682838181FFBDC1CE0101964C01FF
:100B1000F7019381F60193FD859193FF81916F0118
:100B2000882309F4ABC1853239F493FD859193FF95
:100B300081916F01853229F4B70190E00E945E0730
:100B4000E7CF512C312C20E02032A0F48B3269F019
:100B500030F4803259F0833269F420612CC08D3238
:100B600039F0803339F4216026C02260246023C02C
:100B7000286021C027FD27C030ED380F3A3078F4C7
:100B800026FF06C0FAE05F9E300D1124532E13C0DD
:100B90008AE0389E300D1124332E20620CC08E3234
:100BA00021F426FD6BC1206406C08C3611F4206848
:100BB00002C0883641F4F60193FD859193FF81913F
:100BC0006F018111C1CF982F9F7D9554933028F4E8
:100BD0000C5F1F4FFFE3F9830DC0833631F083377D
:100BE00071F0833509F05BC022C0F80180818983F0
:100BF0000E5F1F4F44244394512C540115C03801FB
:100C0000F2E06F0E711CF801A080B18026FF03C0D6
:100C1000652D70E002C06FEF7FEFC5012C870E9449
:100C200053072C0183012C852F77222E17C0380102
:100C3000F2E06F0E711CF801A080B18026FF03C0A6
:100C4000652D70E002C06FEF7FEFC5012C870E9419
:100C500048072C012C852068222E830123FC1BC011
:100C6000832D90E048165906B0F4B70180E290E079
:100C70000E945E073A94F4CFF50127FC859127FE88
:100C800081915F01B70190E00E945E0731103A94B4
:100C9000F1E04F1A51084114510471F7E5C0843650
:100CA00011F0893639F5F80127FF07C0608171819D
:100CB000828193810C5F1F4F08C0608171818827FA
:100CC00077FD8095982F0E5F1F4F2F76B22E97FFDE
:100CD00009C090958095709561957F4F8F4F9F4F7C
:100CE0002068B22E2AE030E0A4010E949007A82ECE
:100CF000A81844C0853729F42F7EB22E2AE030E0B0
:100D000025C0F22FF97FBF2E8F36C1F018F4883539
:100D100079F0B4C0803719F0883721F0AFC02F2F99
:100D20002061B22EB4FE0DC08B2D8460B82E09C098
:100D300024FF0AC09F2F9660B92E06C028E030E03D
:100D400005C020E130E002C020E132E0F801B7FE4A
:100D500007C060817181828193810C5F1F4F06C043
:100D60006081718180E090E00E5F1F4FA4010E94BE
:100D70009007A82EA818FB2DFF77BF2EB6FE0BC03C
:100D80002B2D2E7FA51450F4B4FE0AC0B2FC08C06F
:100D90002B2D2E7E05C07A2C2B2D03C07A2C01C062
:100DA000752C24FF0DC0FE01EA0DF11D80818033FA
:100DB00011F4297E09C022FF06C07394739404C005
:100DC000822F867809F0739423FD13C020FF06C09C
:100DD0005A2C731418F4530C5718732C731468F4AA
:100DE000B70180E290E02C870E945E0773942C8507
:100DF000F5CF731410F4371801C0312C24FF12C042
:100E0000B70180E390E02C870E945E072C8522FFCB
:100E100017C021FF03C088E590E002C088E790E09A
:100E2000B7010CC0822F867859F021FD02C080E204
:100E300001C08BE227FD8DE2B70190E00E945E07C2
:100E4000A51438F4B70180E390E00E945E075A943D
:100E5000F7CFAA94F401EA0DF11D8081B70190E06B
:100E60000E945E07A110F5CF332009F451CEB701DF
:100E700080E290E00E945E073A94F6CFF701868107
:100E8000978102C08FEF9FEF2C96E2E10C940A0845
:100E9000FC010590615070400110D8F78095909545
:100EA0008E0F9F1F0895FC0161507040019001104A
:100EB000D8F7809590958E0F9F1F08950F931F93DD
:100EC000CF93DF93182F092FEB018B8181FD03C096
:100ED0008FEF9FEF20C082FF10C04E815F812C8179
:100EE0003D81421753077CF4E881F9819F012F5F10
:100EF0003F4F39832883108306C0E885F985812F09
:100F00000995892B29F72E813F812F5F3F4F3F8322
:100F10002E83812F902FDF91CF911F910F910895F4
:100F2000FA01AA27283051F1203181F1E8946F931A
:100F30006E7F6E5F7F4F8F4F9F4FAF4FB1E03ED0C0
:100F4000B4E03CD0670F781F891F9A1FA11D680F5E
:100F5000791F8A1F911DA11D6A0F711D811D911D91
:100F6000A11D20D009F468943F912AE0269F112406
:100F70003019305D3193DEF6CF010895462F47706A
:100F8000405D4193B3E00FD0C9F7F6CF462F4F70C5
:100F9000405D4A3318F0495D31FD4052419302D023
:100FA000A9F7EACFB4E0A6959795879577956795C9
:100FB000BA95C9F700976105710508959B01AC01C9
:100FC0000A2E06945795479537952795BA95C9F7F0
:100FD000620F731F841F951FA01D08952F923F92CB
:100FE0004F925F926F927F928F929F92AF92BF9239
:100FF000CF92DF92EF92FF920F931F93CF93DF93E5
:10100000CDB7DEB7CA1BDB0B0FB6F894DEBF0FBE41
:10101000CDBF09942A88398848885F846E847D848E
:101020008C849B84AA84B984C884DF80EE80FD8090
:101030000C811B81AA81B981CE0FD11D0FB6F89406
:0E104000DEBF0FBECDBFED010895F894FFCFC7
:10104E0001036400E803FFC0F9A4B0999282F8800E
:10105E009025752E2575202575206B706820202013
:10106E006D70680025752E257520206B7068202503
:10107E0075206D7068004572726F72202575206B39
:10108E0070682020206D7068004572726F7220208B
:10109E006B7068202575206D7068006469737461CB
:1010AE006E63653A2025752025752E302575202511
:1010BE00750064697374616E63653A202575202529
:0810CE00752E25752025750023
:00000001FF
