:100000000C942A000C9478010C94D1010C944700B4
:100010000C9447000C9447000C9447000C94470044
:100020000C9447000C9447000C94CB000C944700B0
:100030000C9447000C9447000C9447000C94470024
:100040000C9447000C9447000C9447000C94470014
:100050000C94470011241FBECFE5D8E0DEBFCDBF12
:1000600010E0A0E6B0E0E4E7F2E102C005900D92F6
:10007000A83EB107D9F711E0A8EEB0E001C01D928B
:10008000A735B107E1F70E9408010C9438090C94D8
:1000900000008091E9009091EA00A091EB00B091FE
:1000A000EC008093F1009093F200A093F300B093E2
:1000B000F4001092ED001092EE001092EF001092FA
:1000C000F0001092710008958091E9009091EA008B
:1000D000A091EB00B091EC008093ED009093EE00C6
:1000E000A093EF00B093F00081E0809371008093C3
:1000F000E80008956091E9007091EA008091EB00BA
:100100009091EC006F5F7F4F8F4F9F4F6093E9009E
:100110007093EA008093EB009093EC0020917100C3
:10012000222379F42091F1003091F2004091F30004
:100130005091F400621B730B840B950B42E00E94FC
:100140000A0608958091E8008823C1F06091ED00CF
:100150007091EE008091EF009091F0002091F100FD
:100160003091F2004091F3005091F400621B730B48
:10017000840B950B0E9477041092E80008950E946A
:10018000EC02882321F00E94D2020E946B040895A1
:100190000E94C20508951F920F920FB60F9211246C
:1001A0002F933F934F935F936F937F938F939F937F
:1001B000AF93BF93EF93FF930E948304FF91EF915E
:1001C000BF91AF919F918F917F916F915F914F916F
:1001D0003F912F910F900FBE0F901F90189583B7EE
:1001E000886083BF8DE78CBF89B7826089BF83B782
:1001F000836083BF089585B5886085BD85B58061BE
:1002000085BD85B5816085BD89E683BD8F9A0895DA
:100210000E948C0280E690E00E945A020E94CB026B
:1002200089EE90E00E945A010E94B9050E94EF00F9
:100230000E94FB0089E490E00E946E0184E690E059
:100240000E94730181E064E048EC50E020E030E07F
:100250000E94BB0482E06AE04AE750E020E030E020
:100260000E94BB0483E068E24FEB50E020E030E006
:100270000E94BB0484E064E142EA50E020E030E008
:100280000E94BB0461E170E080E090E041E00E94E8
:100290000A068FEF99E6A8E181509040A040E1F76F
:1002A00000C000000E94780278940E941C0580E043
:1002B00090E0089525B72C6025BF25B7236025BFA2
:1002C0002BB7206C2BBF21B3297F21BB22B3266023
:1002D00022BB9093F6008093F5000895909302015D
:1002E0008093010108959093FC008093FB00089592
:1002F0001F920F920FB60F921124EF92FF920F935D
:100300001F932F933F934F935F936F937F938F939D
:100310009F93AF93BF93EF93FF93E091F500F0911C
:10032000F60080819181A281B3812091FD003091FE
:10033000FE004091FF00509100017C018D01E21A06
:10034000F30A040B150BA80197012A30310541056A
:10035000510594F08093FD009093FE00A093FF0060
:10036000B0930001E0910101F091020109958E9A8C
:1003700082B390E4892782BBFF91EF91BF91AF9147
:100380009F918F917F916F915F914F913F912F91AD
:100390001F910F91FF90EF900F900FBE0F901F9045
:1003A00018951F920F920FB60F921124EF92FF92A1
:1003B0000F931F932F933F934F935F936F937F936D
:1003C0008F939F93AF93BF93EF93FF93E091F500CB
:1003D000F091F60080819181A281B3812091F70094
:1003E0003091F8004091F9005091FA007C018D01A4
:1003F000E21AF30A040B150BA80197012A30310504
:100400004105510594F08093F7009093F800A09374
:10041000F900B093FA00E091FB00F091FC0009951F
:100420008D9A82B390E2892782BBFF91EF91BF91B1
:10043000AF919F918F917F916F915F914F913F917C
:100440002F911F910F91FF90EF900F900FBE0F9083
:100450001F90189580FF02C0DC9A01C0DC9881FFD4
:1004600002C0DD9A01C0DD9882FF02C0DE9A01C0A1
:10047000DE9883FF02C0DF9A0895DF9808951F93E6
:10048000182FDB9A82958F700E942A02DB98DB9AE4
:10049000812F0E942A02DB9885E88A95F1F70000F7
:1004A0001F910895DA980E943F020895DA9A0E94F7
:1004B0003F020895EF92FF92CF93DF93E82EE7017A
:1004C0007E01F92EE70102C00E945602899188231D
:1004D000D9F7DF91CF91FF90EF9008956295660F65
:1004E000660F607C680F862F80680E945202089514
:1004F00081E00E9452028FE99FE00197F1F700C06E
:100500000000089582E00E9452028FE99FE0019767
:10051000F1F700C0000008951F93D49AD59AD69A97
:10052000D79AD39AD29A8FE295E70197F1F700C054
:100530000000DA98DB9813E0DB9A83E00E942A023D
:10054000DB988FE097E20197F1F700C000001150AF
:1005500099F7DB9A82E00E942A02DB988FEC97E001
:100560000197F1F700C0000088E20E94520288E083
:100570000E94520281E00E9452028FE99FE001979F
:10058000F1F700C0000086E00E9452028CE00E9459
:1005900052021F91089584B38F7084BB85B3806F1E
:1005A00085BB089523B330E020953095207F3070CF
:1005B00054E0359527955A95E1F780E090E020FFCB
:1005C00002C08F5F089501968430910519F035952A
:1005D0002795F5CF80E0089593B3907F81E0903F19
:1005E00009F480E008950E94EC02882339F00E940B
:1005F000D20290E090930401809303010895DF926A
:10060000EF92FF920F931F93DF93CF93CDB7DEB797
:10061000C055D0400FB6F894DEBF0FBECDBF7B01F2
:100620008C0140930501842F8350823078F48091AF
:10063000D3009091D400443011F4019601C0019789
:100640009093D4008093D300109206018091D30040
:100650009091D40064E670E00E9421069E01275D1F
:100660003F4F8A309105A8F44DB75EB74C505040CB
:100670000FB6F8945EBF0FBE4DBFEDB7FEB7319613
:10068000ADB7BEB712963C932E93119722E730E098
:1006900014C04DB75EB74C5050400FB6F8945EBFD3
:1006A0000FBE4DBFEDB7FEB73196ADB7BEB71296D0
:1006B0003C932E93119725E830E0338322832091D9
:1006C000D700332727FD30953583248377836683CE
:1006D000918780878091D600992787FD9095938791
:1006E00082870E945706EDB7FEB73C960FB6F89486
:1006F000FEBF0FBEEDBF80910501982F9150923043
:1007000010F48093D500D090D500E114F1040105D8
:10071000110509F489C06091D3007091D40080E084
:1007200090E0A80197010E94350669ED7AE0269FC6
:10073000C001279F900D369F900D11249E012F5FC1
:100740003F4FFD2DF13059F54DB75EB74A5050403F
:100750000FB6F8945EBF0FBE4DBFEDB7FEB7319632
:10076000ADB7BEB712963C932E93119727E930E0B0
:100770003383228364E670E00E94210675836483DC
:10078000978386838091D600992787FD90959187DE
:1007900080870E945706EDB7FEB73A9676C0AC0147
:1007A000440F551F66E0880F991F6A95E1F7841B77
:1007B000950BE4E6F0E0BF010E9421064DB75EB75D
:1007C0004A5050400FB6F8945EBF0FBE4DBF0DB7F4
:1007D0001EB70F5F1F4FADB7BEB712963C932E9357
:1007E000119788EA90E0D80113969C938E93129704
:1007F000CB01BF010E942106F801758364839783B2
:1008000086838091D600992787FD90959187808770
:100810000E9457064DB75EB7465F5F4F0FB6F8941C
:100820005EBF0FBE4DBF36C09E012F5F3F4F5D2D97
:10083000513079F400D000D000D0EDB7FEB731963A
:10084000ADB7BEB712963C932E93119789EB90E00B
:100850000EC000D000D000D0EDB7FEB73196ADB7D6
:10086000BEB712963C932E93119786EC90E093833B
:1008700082838091D600992787FD90959583848304
:100880000E945706EDB7FEB736960FB6F894FEBF36
:100890000FBEEDBF0E94780280E060E00E946E0211
:1008A000CE0101960E945A0280E061E00E946E0231
:1008B000CE0189960E945A02C05BDF4F0FB6F894B2
:1008C000DEBF0FBECDBFCF91DF911F910F91FF9083
:1008D000EF90DF900895482F6091D8007091D90073
:1008E0008091DA009091DB000E94FF0208956093EE
:1008F000D8007093D9008093DA009093DB0040E039
:100900000E94FF020895CF93DF93C0E0D0E0FE0184
:1009100083E0EE0FFF1F8A95E1F7EC0FFD1FE75F05
:10092000FE4F85819681A781B0850196A11DB11DDD
:1009300085839683A783B08765817681878190853B
:10094000248130E040E050E00E94350661157105D9
:100950008105910549F48091070190910801019664
:1009600090930801809307012196C830D10579F64C
:10097000DF91CF91089590E0FC0173E0EE0FFF1F2F
:100980007A95E1F7E80FF91FE75FFE4F5183408347
:10099000338322836483158216821782108608951A
:1009A0008091DC008F3F81F08091DC00992787FDEA
:1009B0009095FC01A3E0EE0FFF1FAA95E1F7E80F69
:1009C000F91FE75FFE4F148208952091DC002F3F4E
:1009D00011F12091DC00332727FD3095F90143E028
:1009E000EE0FFF1F4A95E1F7E20FF31FE75FFE4F9F
:1009F000918380838091DC00992787FD9095FC018D
:100A0000B3E0EE0FFF1FBA95E1F7E80FF91FE75FBC
:100A1000FE4F73836283089590E0FC01A3E0EE0F24
:100A2000FF1FAA95E1F7E80FF91FE75FFE4F7183FB
:100A300060835383428308951F93CF93DF931FEF07
:100A400080910701909108010097D1F3F89460E03C
:100A500070E0DB0143E0AA0FBB1F4A95E1F7A60F48
:100A6000B71FA75FBE4FED01249614968C91149783
:100A7000882359F1FD01359615962D913D914D91A3
:100A80005C91189714968C9190E0A0E0B0E0281744
:100A900039074A075B07C8F080819181A281B38141
:100AA0002881821B9109A109B10980839183A283C6
:100AB000B3836093DC008091070190910801019756
:100AC000909308018093070106C06F5F7F4F6830E5
:100AD000710509F0BECF78948091DC0087FDB0CF1E
:100AE0008091DC00992787FD9095FC0133E0EE0FA3
:100AF000FF1F3A95E1F7E80FF91FE75FFE4F0190FE
:100B0000F081E02D8091DC00992787FD9095DC0134
:100B100023E0AA0FBB1F2A95E1F7A80FB91FA75F13
:100B2000BE4F12968D919C91139709951093DC00FE
:100B300087CF582F262F842F5430D0F495B39F6041
:100B400095BB6AE00E941506E92FF0E0E352FF4FE3
:100B5000808188BB2111C79885B321E030E002C0B5
:100B6000220F331F5A95E2F72095206F282325BBCB
:100B700008958FEF87BB18BA84B38F6084BB85B3A9
:100B800085BB08951F938091560190E00196837074
:100B90009070282F80935601882341F011E08091B6
:100BA0005501281310E02130B1F405C080E060E069
:100BB000409151012BC0609151017091520180917F
:100BC0005301909154012AE030E040E050E00E944F
:100BD000350681E019C060915101709152018091F8
:100BE000530190915401223041F424E630E040E07A
:100BF00050E00E94350682E007C028EE33E040E076
:100C000050E00E94350683E0612F422F0E94990533
:100C10001F91089560935101709352018093530185
:100C200090935401409355010895991B79E004C0B5
:100C3000991F961708F0961B881F7A95C9F780951B
:100C40000895AA1BBB1B51E107C0AA1FBB1FA61713
:100C5000B70710F0A61BB70B881F991F5A95A9F765
:100C600080959095BC01CD010895A1E21A2EAA1B92
:100C7000BB1BFD010DC0AA1FBB1FEE1FFF1FA2174C
:100C8000B307E407F50720F0A21BB30BE40BF50B49
:100C9000661F771F881F991F1A9469F760957095D2
:100CA000809590959B01AC01BD01CF010895AEE008
:100CB000B0E0EDE5F6E00C940F090D891E8986E0A1
:100CC0008C831A8309838FEF9FE79E838D839E0118
:100CD000275E3F4FCE0101966F89788DA9010E9452
:100CE0007A06EF81F885E00FF11F10822E96E4E07E
:100CF0000C942B09ACE0B0E0E0E8F6E00C940109BC
:100D00006C011B018A01FC0117821682838181FF1D
:100D1000D1C12E010894411C511CF6019381F101AF
:100D200093FD859193FF81911F01882309F4BEC132
:100D3000853239F493FD859193FF81911F018532AE
:100D400029F490E0B6010E947708E7CFEE24FF2453
:100D500020E02032B0F48B3269F08C3228F48032FB
:100D600051F0833271F40BC08D3239F0803349F485
:100D700021602CC02260246029C0286027C0206127
:100D800025C027FD2CC0382F30533A3098F426FF69
:100D900008C08E2D880FE82EEE0CEE0CE80EE30E48
:100DA00015C08F2D880FF82EFF0CFF0CF80EF30ED8
:100DB00020620CC08E3221F426FD78C1206406C06A
:100DC0008C3611F4206802C0883649F4F10193FD95
:100DD000859193FF81911F01882309F0BACF982F45
:100DE0009554933018F09052933028F40C5F1F4FB5
:100DF000FFE3F9830DC0833631F0833771F083351B
:100E000009F060C022C0F801808189830E5F1F4F06
:100E1000420171E0A72EB12C16C062E0662E712C43
:100E2000600E711EF8018080918026FF03C06E2D38
:100E300070E002C06FEF7FEFC4012C870E946C0846
:100E40005C0183012C852F7717C052E0652E712C31
:100E5000600E711EF8018080918026FF03C06E2D08
:100E600070E002C06FEF7FEFC4012C870E94610821
:100E70005C012C852068830123FD20C008C080E22E
:100E800090E0B6012C870E947708FA942C858F2D6C
:100E900090E0A816B90698F311C0F40127FD8591DA
:100EA00027FF81914F0190E0B6012C870E947708BF
:100EB0002C85F110FA940894A108B108A114B1048A
:100EC00061F7F1C0843611F0893649F527FF08C073
:100ED000F80160817181828193810C5F1F4F09C08D
:100EE000F80160817181882777FD8095982F0E5FCA
:100EF0001F4F4FE6B42EB22297FF09C09095809500
:100F0000709561957F4F8F4F9F4FF0E8BF2AA201E8
:100F10002AE030E00E94A308782E741845C0853777
:100F200031F43FEEB32EB2222AE030E025C099EF33
:100F3000B92EB2228F36C1F0803720F4883509F0FF
:100F4000B5C00DC0803721F0883709F0AFC002C0AE
:100F500020E1B22AB4FE0BC084E0B82A08C0B4FE77
:100F600009C0E6E0BE2A06C028E030E005C020E166
:100F700030E002C020E132E0B7FE08C0F801608135
:100F80007181828193810C5F1F4F07C0F8016081DE
:100F9000718180E090E00E5F1F4FA2010E94A308C4
:100FA000782E7418FFE7BF22B6FE0BC02EEFB222D8
:100FB0007E1438F4B4FE07C0B2FC05C08FEEB82230
:100FC00002C0A72C01C0AE2C8B2D90E0B4FE0DC04A
:100FD000FE01E70DF11D2081203319F4E9EEBE2258
:100FE00009C0A394B2FE06C004C086789070009732
:100FF00009F0A3948B2C9924B3FC14C0B0FE0FC04D
:10100000AF1428F4E72CEF0CEA18AF2C08C0E72C3B
:1010100006C080E290E0B6010E947708A394AF1466
:10102000C0F304C0AF1410F4FA1801C0FF2484FE0A
:101030000FC080E390E0B6010E94770882FE1FC0D7
:1010400081FE03C088E590E010C088E790E00DC005
:10105000C40186789070009791F081FC02C080E214
:1010600001C08BE2B7FC8DE290E0B6010E947708E8
:1010700006C080E390E0B6010E947708EA947E14EF
:10108000C0F37A94F201E70DF11D808190E0B60182
:101090000E9477087720A9F706C080E290E0B601A9
:1010A0000E947708FA94FF20C1F737CEF601268117
:1010B000378102C02FEF3FEFC9012C96E2E10C947B
:1010C0001D09FC010590615070400110D8F7809512
:1010D00090958E0F9F1F0895FC0161507040019004
:1010E0000110D8F7809590958E0F9F1F08950F934C
:1010F0001F93CF93DF938C01EB018B8181FF1BC08A
:1011000082FF0DC02E813F818C819D812817390778
:1011100064F4E881F9810193F983E88306C0E885E6
:10112000F985802F0995009731F48E819F81019672
:101130009F838E8302C00FEF1FEFC801DF91CF9115
:101140001F910F910895FA01AA27283051F12031FB
:1011500081F1E8946F936E7F6E5F7F4F8F4F9F4F4B
:10116000AF4FB1E03ED0B4E03CD0670F781F891F8D
:101170009A1FA11D680F791F8A1F911DA11D6A0F5B
:10118000711D811D911DA11D20D009F468943F910E
:101190002AE0269F11243019305D3193DEF6CF010D
:1011A0000895462F4770405D4193B3E00FD0C9F7D3
:1011B000F6CF462F4F70405D4A3318F0495D31FD40
:1011C0004052419302D0A9F7EACFB4E0A695979593
:1011D000879577956795BA95C9F700976105710569
:1011E00008959B01AC010A2E0694579547953795B3
:1011F0002795BA95C9F7620F731F841F951FA01D0D
:1012000008952F923F924F925F926F927F928F92AA
:101210009F92AF92BF92CF92DF92EF92FF920F9385
:101220001F93CF93DF93CDB7DEB7CA1BDB0B0FB68F
:10123000F894DEBF0FBECDBF09942A88398848884C
:101240005F846E847D848C849B84AA84B984C884E2
:10125000DF80EE80FD800C811B81AA81B981CE0FD9
:10126000D11D0FB6F894DEBF0FBECDBFED010895BE
:04127000F894FFCF20
:1012740050686F746F63656C6C2076302E3030313B
:101284000001646973743A2025632025752E302586
:101294007520256300646973743A202563202575DD
:1012A4002E25752025630025752E257520256320A0
:1012B4006B7068206D70680025752E2575206B7025
:1012C40068202563206D70680030202563206B70D2
:1012D40068206D70680030206B7068202563206D75
:1012E400706800E803013E3C64000000FFC0F9A4FC
:0812F400B0999282F88090008D
:00000001FF
