:100000000C942A000C9470000C9497000C944700F8
:100010000C9447000C9447000C9447000C94470044
:100020000C9447000C9447000C9447000C94470034
:100030000C9447000C9447000C9447000C94470024
:100040000C9447000C9447000C9447000C94470014
:100050000C94470011241FBECFE5D8E0DEBFCDBF12
:1000600010E0A0E6B0E0ECE1FEE002C005900D92E9
:10007000A83BB107D9F711E0A8EBB0E001C01D9291
:10008000A830B107E1F70E9449000C940C070C94CA
:1000900000000E9433010E94BE000E945C0080E0CC
:1000A00064E047E752E020E030E00E9417030E943E
:1000B000780380E090E0089585B78C6085BF85B7B0
:1000C000836085BF8BB7806C8BBF08959093BB0016
:1000D0008093BA0008959093B9008093B800089572
:1000E0001F920F920FB60F9211242F933F934F93AD
:1000F0005F936F937F938F939F93AF93BF93EF9390
:10010000FF93E091BA00F091BB000995FF91EF9148
:10011000BF91AF919F918F917F916F915F914F911F
:100120003F912F910F900FBE0F901F9018951F9227
:100130000F920FB60F9211242F933F934F935F931B
:100140006F937F938F939F93AF93BF93EF93FF939F
:10015000E091B800F091B9000995FF91EF91BF913E
:10016000AF919F918F917F916F915F914F913F914F
:100170002F910F900FBE0F901F90189581B3806341
:1001800081BB82B38F7C82BB089582B390E18927C3
:1001900082BB089582B390E2892782BB089580FFD5
:1001A00002C0DC9A01C0DC9881FF02C0DD9A01C068
:1001B000DD9882FF02C0DE9A01C0DE9883FF02C094
:1001C000DF9A0895DF9808951F93182FDB9A829580
:1001D0008F700E94CF00DB98DB9A812F0E94CF00A6
:1001E000DB9887EC90E00197F1F700C000001F91C9
:1001F0000895DA980E94E4000895DA9A0E94E400D3
:100200000895EF92FF92CF93DF93E82EE7017E01EE
:10021000F92EE70102C00E94FD0089918823D9F7D9
:10022000DF91CF91FF90EF9008956295660F660F72
:10023000607C680F862F80680E94F900089581E035
:100240000E94F9008FE39FE10197F1F700C00000E1
:10025000089582E00E94F9008FE39FE10197F1F792
:1002600000C0000008951F93D49AD59AD69AD79AC1
:10027000D39AD29A8FE59AEE0197F1F700C0000069
:10028000DA98DB9813E0DB9A83E00E94CF00DB98DA
:100290008FE19EE40197F1F700C00000115099F73B
:1002A000DB9A82E00E94CF00DB988FE99FE0019704
:1002B000F1F700C0000088E20E94F90088E00E9487
:1002C000F90081E00E94F9008FE39FE10197F1F7C7
:1002D00000C0000086E00E94F9008CE00E94F90056
:1002E0001F91089515BA8FE084BB90EF95BB23B39F
:1002F00015BA94BB85BB33B330953F7080E090E076
:1003000030FF02C0382F07C001968430910511F0EC
:100310003695F6CF30E022952F7020952F7080E033
:1003200090E020FD07C001968430910511F02695DC
:10033000F8CF80E0932F990F990F9F5F890F089551
:1003400015BA8FE084BB90EF95BB23B315BA94BB6D
:1003500085BB83B38F708F3039F4922F907F81E00B
:10036000903F19F480E0089581E008950E94A00173
:10037000882329F00E947201282F30E002C020E07B
:1003800030E0C9010895AC01440F551F26E0880FE5
:10039000991F2A95E1F7841B950B64E670E00E9493
:1003A000F503CB010895CF93DF93EA016330C9F4DD
:1003B0002DB73EB72A5030400FB6F8943EBF0FBE5F
:1003C0002DBFEDB7FEB73196ADB7BEB712965C93B1
:1003D0004E93119720E630E03383228364E670E089
:1003E00026C09C01220F331F76E0880F991F7A9553
:1003F000E1F7821B930B24E630E0B9010E94F5037C
:100400008DB79EB70A970FB6F8949EBF0FBE8DBFEB
:10041000EDB7FEB73196ADB7BEB71296DC93CE936B
:10042000119783E790E093838283CB01B9010E9407
:10043000F50375836483978386838EE790E09187C5
:1004400080870E942B042DB73EB7265F3F4F0FB623
:10045000F8943EBF0FBE2DBFDF91CF9108959B0151
:1004600064E670E00E94F5038A309105A8F44DB768
:100470005EB74C5050400FB6F8945EBF0FBE4DBFF4
:10048000EDB7FEB73196ADB7BEB712963C932E933B
:10049000119725E830E011C0ADB7BEB71C970FB675
:1004A000F894BEBF0FBEADBFEDB7FEB73196129642
:1004B0003C932E9311972CE930E0338322832FE76E
:1004C00030E03583248377836683918780878EE746
:1004D00090E0938782870E942B044DB75EB7445FFC
:1004E0005F4F0FB6F8945EBF0FBE4DBF08950F93D8
:1004F0001F93DF93CF93CDB7DEB7C055D0400FB673
:10050000F894DEBF0FBECDBF80E090E00E94B60140
:100510008093BC00982F9350923010F48093B600D3
:100520008091B4009091B5006091B600AE014F5F2C
:100530005F4F0E94D3018091BC00982F975092305A
:1005400010F48093BD008091BD00873031F480911C
:10055000B2009091B300019607C0883059F48091A1
:10056000B2009091B30001979093B3008093B200D2
:100570001092BD008E01075D1F4F8091B2009091D7
:10058000B300B8010E942F0280E360E30E941501CE
:10059000CE0101960E94010180E361E30E941501F2
:1005A000C8010E940101C05BDF4F0FB6F894DEBFA7
:1005B0000FBECDBFCF91DF911F910F910895CF93C3
:1005C000DF93C0E0D0E0FE0183E0EE0FFF1F8A95CD
:1005D000E1F7EC0FFD1FE054FF4F85819681A78165
:1005E000B0850196A11DB11D85839683A783B08731
:1005F0006581768187819085248130E040E050E0FC
:100600000E940904611571058105910549F48091E5
:10061000BE009091BF0001969093BF008093BE00F2
:100620002196C830D10579F6DF91CF91089590E0F9
:10063000FC0173E0EE0FFF1F7A95E1F7E80FF91F59
:10064000E054FF4F518340833383228364831582B8
:1006500016821782108608958091B7008F3F81F02F
:100660008091B700992787FD9095FC01A3E0EE0FDC
:10067000FF1FAA95E1F7E80FF91FE054FF4F14821E
:1006800008952091B7002F3F11F12091B700332733
:1006900027FD3095F90143E0EE0FFF1F4A95E1F782
:1006A000E20FF31FE054FF4F918380838091B700E6
:1006B000992787FD9095FC01B3E0EE0FFF1FBA95D7
:1006C000E1F7E80FF91FE054FF4F73836283089549
:1006D00090E0FC01A3E0EE0FFF1FAA95E1F7E80F01
:1006E000F91FE054FF4F7183608353834283089561
:1006F0001F93CF93DF931FEF8091BE009091BF00B7
:100700000097D1F3F89460E070E0DB0143E0AA0FBA
:10071000BB1F4A95E1F7A60FB71FA054BF4FED01CD
:10072000249614968C911497882359F1FD013596DF
:1007300015962D913D914D915C91189714968C9141
:1007400090E0A0E0B0E0281739074A075B07C8F03F
:1007500080819181A281B3812881821B9109A109A5
:10076000B10980839183A283B3836093B7008091A2
:10077000BE009091BF0001979093BF008093BE0090
:1007800006C06F5F7F4F6830710509F0BECF789467
:100790008091B70087FDB0CF8091B700992787FD82
:1007A0009095FC0133E0EE0FFF1F3A95E1F7E80F5B
:1007B000F91FE054FF4F0190F081E02D8091B700C8
:1007C000992787FD9095DC0123E0AA0FBB1F2A958E
:1007D000E1F7A80FB91FA054BF4F12968D919C91BD
:1007E000139709951093B70087CFAA1BBB1B51E144
:1007F00007C0AA1FBB1FA617B70710F0A61BB70B91
:10080000881F991F5A95A9F780959095BC01CD0135
:100810000895A1E21A2EAA1BBB1BFD010DC0AA1F41
:10082000BB1FEE1FFF1FA217B307E407F50720F059
:10083000A21BB30BE40BF50B661F771F881F991FD4
:100840001A9469F760957095809590959B01AC011D
:10085000BD01CF010895AEE0B0E0E1E3F4E00C9417
:10086000E3060D891E8986E08C831A8309838FEF46
:100870009FE79E838D839E01275E3F4FCE010196A9
:100880006F89788DA9010E944E04EF81F885E00FF1
:10089000F11F10822E96E4E00C94FF06ACE0B0E06D
:1008A000E4E5F4E00C94D5066C011B018A01FC011F
:1008B00017821682838181FFD1C12E010894411CC9
:1008C000511CF6019381F10193FD859193FF819174
:1008D0001F01882309F4BEC1853239F493FD859147
:1008E00093FF81911F01853229F490E0B6010E94A7
:1008F0004B06E7CFEE24FF2420E02032B0F48B3209
:1009000069F08C3228F4803251F0833271F40BC0DC
:100910008D3239F0803349F421602CC0226024608C
:1009200029C0286027C0206125C027FD2CC0382F92
:1009300030533A3098F426FF08C08E2D880FE82EE9
:10094000EE0CEE0CE80EE30E15C08F2D880FF82E7E
:10095000FF0CFF0CF80EF30E20620CC08E3221F457
:1009600026FD78C1206406C08C3611F4206802C0D0
:10097000883649F4F10193FD859193FF81911F0120
:10098000882309F0BACF982F9554933018F09052DD
:10099000933028F40C5F1F4FFFE3F9830DC08336BB
:1009A00031F0833771F0833509F060C022C0F8015F
:1009B000808189830E5F1F4F420171E0A72EB12C09
:1009C00016C062E0662E712C600E711EF8018080E8
:1009D000918026FF03C06E2D70E002C06FEF7FEFA5
:1009E000C4012C870E9440065C0183012C852F776F
:1009F00017C052E0652E712C600E711EF8018080C8
:100A0000918026FF03C06E2D70E002C06FEF7FEF74
:100A1000C4012C870E9435065C012C852068830167
:100A200023FD20C008C080E290E0B6012C870E9420
:100A30004B06FA942C858F2D90E0A816B90698F3F2
:100A400011C0F40127FD859127FF81914F0190E0AE
:100A5000B6012C870E944B062C85F110FA9408945D
:100A6000A108B108A114B10461F7F1C0843611F0F6
:100A7000893649F527FF08C0F801608171818281BC
:100A800093810C5F1F4F09C0F80160817181882735
:100A900077FD8095982F0E5F1F4F4FE6B42EB22240
:100AA00097FF09C090958095709561957F4F8F4F06
:100AB0009F4FF0E8BF2AA2012AE030E00E947706AB
:100AC000782E741845C0853731F43FEEB32EB2222C
:100AD0002AE030E025C099EFB92EB2228F36C1F05E
:100AE000803720F4883509F0B5C00DC0803721F07B
:100AF000883709F0AFC002C020E1B22AB4FE0BC0B3
:100B000084E0B82A08C0B4FE09C0E6E0BE2A06C0E8
:100B100028E030E005C020E130E002C020E132E012
:100B2000B7FE08C0F80160817181828193810C5FFA
:100B30001F4F07C0F8016081718180E090E00E5F77
:100B40001F4FA2010E947706782E7418FFE7BF227C
:100B5000B6FE0BC02EEFB2227E1438F4B4FE07C0EE
:100B6000B2FC05C08FEEB82202C0A72C01C0AE2C8B
:100B70008B2D90E0B4FE0DC0FE01E70DF11D20812C
:100B8000203319F4E9EEBE2209C0A394B2FE06C0D8
:100B900004C086789070009709F0A3948B2C992458
:100BA000B3FC14C0B0FE0FC0AF1428F4E72CEF0C58
:100BB000EA18AF2C08C0E72C06C080E290E0B6012E
:100BC0000E944B06A394AF14C0F304C0AF1410F4FA
:100BD000FA1801C0FF2484FE0FC080E390E0B60144
:100BE0000E944B0682FE1FC081FE03C088E590E094
:100BF00010C088E790E00DC0C4018678907000971F
:100C000091F081FC02C080E201C08BE2B7FC8DE272
:100C100090E0B6010E944B0606C080E390E0B6016A
:100C20000E944B06EA947E14C0F37A94F201E70D19
:100C3000F11D808190E0B6010E944B067720A9F754
:100C400006C080E290E0B6010E944B06FA94FF20B5
:100C5000C1F737CEF6012681378102C02FEF3FEF73
:100C6000C9012C96E2E10C94F106FC01059061505B
:100C700070400110D8F7809590958E0F9F1F0895B2
:100C8000FC016150704001900110D8F7809590955B
:100C90008E0F9F1F08950F931F93CF93DF938C01A7
:100CA000EB018B8181FF1BC082FF0DC02E813F8134
:100CB0008C819D812817390764F4E881F9810193BB
:100CC000F983E88306C0E885F985802F09950097A8
:100CD00031F48E819F8101969F838E8302C00FEF36
:100CE0001FEFC801DF91CF911F910F910895FA0175
:100CF000AA27283051F1203181F1E8946F936E7F5B
:100D00006E5F7F4F8F4F9F4FAF4FB1E03ED0B4E04B
:100D10003CD0670F781F891F9A1FA11D680F791F8C
:100D20008A1F911DA11D6A0F711D811D911DA11D9D
:100D300020D009F468943F912AE0269F11243019AD
:100D4000305D3193DEF6CF010895462F4770405D48
:100D50004193B3E00FD0C9F7F6CF462F4F70405DF7
:100D60004A3318F0495D31FD4052419302D0A9F752
:100D7000EACFB4E0A6959795879577956795BA954C
:100D8000C9F700976105710508959B01AC010A2E12
:100D900006945795479537952795BA95C9F7620FE9
:100DA000731F841F951FA01D08952F923F924F928D
:100DB0005F926F927F928F929F92AF92BF92CF92EB
:100DC000DF92EF92FF920F931F93CF93DF93CDB7F4
:100DD000DEB7CA1BDB0B0FB6F894DEBF0FBECDBF6C
:100DE00009942A88398848885F846E847D848C843D
:100DF0009B84AA84B984C884DF80EE80FD800C8146
:100E00001B81AA81B981CE0FD11D0FB6F894DEBF28
:0C0E10000FBECDBFED010895F894FFCF98
:100E1C0025752E2575202575206B70682020206D7A
:100E2C0070680025752E257520206B70682025753F
:100E3C00206D70680064697374616E63653A202577
:100E4C00752025752E302575202575006469737401
:100E5C00616E63653A2025752025752E2575202534
:080E6C007500E803640003FFB8
:00000001FF
