:100000000C942A000C9432010C948B010C94470040
:100010000C9447000C9447000C9447000C94470044
:100020000C9447000C9447000C94D7000C944700A4
:100030000C9447000C9447000C9447000C94470024
:100040000C9447000C9447000C9447000C94470014
:100050000C94470011241FBECFE5D8E0DEBFCDBF12
:1000600010E0A0E6B0E0E4E0F2E102C005900D92FD
:10007000A83EB107D9F711E0A8EEB0E001C01D928B
:10008000A735B107E1F70E9481050C9400090C9493
:1000900000008091F1009091F200A091F300B091E6
:1000A000F4008093ED009093EE00A093EF00B093E6
:1000B000F0001092E9001092EA001092EB0010920A
:1000C000EC001092600008958091F1009091F20090
:1000D000A091F300B091F4008093E9009093EA00BE
:1000E000A093EB00B093EC0081E0809360008093DC
:1000F000E80008950C942E050F931F938091F10052
:100100009091F200A091F300B091F4000196A11D2E
:10011000B11D8093F1009093F200A093F300B0938F
:10012000F40020916000211115C04091ED00509124
:10013000EE006091EF007091F0008C019D01041BB6
:10014000150B260B370BC901B80142E01F910F9127
:100150000C9476051F910F9108950E94A6028823A2
:1001600021F00E948C020C94E40308950F931F93D6
:100170008091E8008823C1F06091E9007091EA0065
:100180008091EB009091EC000091ED001091EE0059
:100190002091EF003091F000601B710B820B930BEC
:1001A0000E94D9031092E8001F910F9108951F92A9
:1001B0000F920FB60F9211242F933F934F935F939B
:1001C0006F937F938F939F93AF93BF93EF93FF931F
:1001D0000E94EF03FF91EF91BF91AF919F918F919B
:1001E0007F916F915F914F913F912F910F900FBE33
:1001F0000F901F90189583B7886083BF8DE78CBFE1
:1002000089B7826089BF83B7836083BF089585B54E
:10021000886085BD85B5806185BD85B5816085BDFA
:1002200089E683BD8F9A089525B72C6025BF25B731
:10023000236025BF2BB7206C2BBF21B3297F21BBA7
:1002400022B3266022BB9093F6008093F5000895B8
:10025000909302018093010108959093FC00809394
:10026000FB0008951F920F920FB60F921124EF9288
:10027000FF920F931F932F933F934F935F936F932F
:100280007F938F939F93AF93BF93EF93FF93E091EF
:10029000F500F091F60080819181A281B3812091D7
:1002A000FD003091FE004091FF00509100017C0163
:1002B0008D01E21AF30A040B150BA80197012A30ED
:1002C00031054105510594F08093FD009093FE00A7
:1002D000A093FF00B0930001E0910101F0910201B1
:1002E00009958E9A82B390E4892782BBFF91EF91A2
:1002F000BF91AF919F918F917F916F915F914F913E
:100300003F912F911F910F91FF90EF900F900FBE93
:100310000F901F9018951F920F920FB60F921124F5
:10032000EF92FF920F931F932F933F934F935F93FF
:100330006F937F938F939F93AF93BF93EF93FF93AD
:10034000E091F500F091F60080819181A281B38166
:100350002091F7003091F8004091F9005091FA0097
:100360007C018D01E21AF30A040B150BA801970119
:100370002A3031054105510594F08093F7009093A0
:10038000F800A093F900B093FA00E091FB00F0911F
:10039000FC0009958D9A82B390E2892782BBFF9178
:1003A000EF91BF91AF919F918F917F916F915F91ED
:1003B0004F913F912F911F910F91FF90EF900F90D0
:1003C0000FBE0F901F90189580FF02C0DC9A01C0ED
:1003D000DC9881FF02C0DD9A01C0DD9882FF02C077
:1003E000DE9A01C0DE9883FF02C0DF9A0895DF988D
:1003F00008951F93182FDB9A82958F700E94E40155
:10040000DB98DB9A812F0E94E401DB9885E88A95CE
:10041000F1F700001F910895DA980E94F9010895FC
:10042000DA9A0E94F9010895EF92FF92CF93DF9339
:10043000E82EE7017E01F92EE70102C00E941002BA
:1004400089918823D9F7DF91CF91FF90EF9008959C
:100450006295660F660F607C680F862F80680E9429
:100460000C02089581E00E940C028FE99FE0019741
:10047000F1F700C00000089582E00E940C028FE9AD
:100480009FE00197F1F700C0000008951F93D49AF0
:10049000D59AD69AD79AD39AD29A8FE295E70197AE
:1004A000F1F700C00000DA98DB9813E0DB9A83E0F4
:1004B0000E94E401DB988FE097E20197F1F700C01A
:1004C0000000115099F7DB9A82E00E94E401DB986A
:1004D0008FEC97E00197F1F700C0000088E20E94DE
:1004E0000C0288E00E940C0281E00E940C028FE95D
:1004F0009FE00197F1F700C0000086E00E940C0227
:100500008CE00E940C021F91089584B38F7084BB0D
:1005100085B3806F85BB089523B330E02095309577
:10052000207F307054E0359527955A95E1F780E0AB
:1005300090E020FF02C08F5F0895019684309105FE
:1005400019F035952795F5CF80E0089593B3907F06
:1005500081E0903F09F480E008950E94A60288237C
:1005600039F00E948C0290E0909304018093030183
:1005700008952F923F924F925F926F927F928F9247
:100580009F92AF92BF92CF92DF92EF92FF920F9322
:100590001F93CF93DF93CDB7DEB7C055D1090FB608
:1005A000F894DEBF0FBECDBF6B017C014093060106
:1005B0008DEF840F823078F480916800909169000B
:1005C000443011F4019601C0019790936900809323
:1005D000680010920501809168009091690064E6BE
:1005E00070E00E94EA0550916600409165009E010E
:1005F0002F5F3F4F5901252F332727FD30958A3034
:10060000910578F43F935F939F938F937F936F93BC
:10061000842F992787FD90959F934F9386E890E0CC
:100620000EC03F935F939F938F937F936F93842F1D
:10063000992787FD90959F934F9389E990E09F9329
:100640008F93BF92AF920E942F060FB6F894DEBF31
:100650000FBECDBF809106019FEF980F923010F42E
:100660008093670070906600609067008E01075D60
:100670001F4FC114D104E104F10409F454C0809166
:1006800068009091690024E2289F1001299F300C96
:100690001124412C512C84E6882E912CA4E6B0E044
:1006A000A70196010E94D3059B01AC01C201B101D3
:1006B0000E94FE05C90161E0661210C0272D332794
:1006C00027FD30953F937F92B4010E94EA059F93E6
:1006D0008F937F936F938BEA90E019C06EE3629FD4
:1006E000C001639F900D1124B4010E94EA05CB0163
:1006F000272D332727FD30953F937F92B4010E9429
:10070000EA059F938F937F936F938CEB90E09F9379
:100710008F931F930F930E942F060FB6F894DEBF9E
:100720000FBECDBF1CC031E0872D992787FD909566
:10073000631205C09F937F928DEC90E004C09F935D
:100740007F928AED90E09F938F931F930F930E9467
:100750002F060F900F900F900F900F900F900E9408
:10076000320260E080E00E942802C8010E94140268
:1007700061E080E00E942802C5010E941402C05B73
:10078000DF4F0FB6F894DEBF0FBECDBFDF91CF9124
:100790001F910F91FF90EF90DF90CF90BF90AF909F
:1007A0009F908F907F906F905F904F903F902F9091
:1007B000089560936100709362008093630090934A
:1007C000640040E00C94B902482F60916100709180
:1007D000620080916300909164000C94B902CF9301
:1007E000DF93C0E0D0E0FE0183E0EE0FFF1F8A95AB
:1007F000E1F7EC0FFD1FE75FFE4F85819681A78132
:10080000B0850196A11DB11D85839683A783B0870E
:100810006581768187819085248130E040E050E0D9
:100820000E94FE05611571058105910549F48091CD
:1008300007019091080101969093080180930701A8
:100840002196C830D10579F6DF91CF91089590E0D7
:10085000FC0173E0EE0FFF1F7A95E1F7E80FF91F37
:10086000E75FFE4F51834083338322836483158285
:10087000168217821086089580916A008F3F81F05A
:1008800080916A00992787FD9095FC01A3E0EE0F07
:10089000FF1FAA95E1F7E80FF91FE75FFE4F1482EB
:1008A000089520916A002F3F11F120916A003327AB
:1008B00027FD3095F90143E0EE0FFF1F4A95E1F760
:1008C000E20FF31FE75FFE4F9183808380916A0000
:1008D000992787FD9095FC01B3E0EE0FFF1FBA95B5
:1008E000E1F7E80FF91FE75FFE4F73836283089516
:1008F00090E0FC01A3E0EE0FFF1FAA95E1F7E80FDF
:10090000F91FE75FFE4F718360835383428308952D
:100910001F93CF93DF931FEF809107019091080100
:100920000097D1F3F89460E070E0DB0143E0AA0F98
:10093000BB1F4A95E1F7A60FB71FA75FBE4FED019A
:10094000249614968C911497882359F1FD013596BD
:1009500015962D913D914D915C91189714968C911F
:1009600090E0A0E0B0E0281739074A075B07C8F01D
:1009700080819181A281B3812881821B9109A10983
:10098000B10980839183A283B38360936A008091CD
:100990000701909108010197909308018093070146
:1009A00006C06F5F7F4F6830710509F0BECF789445
:1009B00080916A0087FDB0CF80916A00992787FDFA
:1009C0009095FC0133E0EE0FFF1F3A95E1F7E80F39
:1009D000F91FE75FFE4F0190F081E02D80916A00E2
:1009E000992787FD9095DC0123E0AA0FBB1F2A956C
:1009F000E1F7A80FB91FA75FBE4F12968D919C918A
:100A00001397099510936A0087CF582F262F842FAC
:100A10005430D0F495B39F6095BB6AE00E94DE0528
:100A2000E92FF0E0E559FF4F808188BB2111C7987D
:100A300085B321E030E002C0220F331F5A95E2F760
:100A40002095206F282325BB08958FEF87BB18BA08
:100A500084B38F6084BB85B385BB08951F93809159
:100A6000560190E0019683709070282F8093560174
:100A7000882341F011E080915501281310E02130C6
:100A8000B1F405C080E060E0409151012BC060915D
:100A900051017091520180915301909154012AE0CB
:100AA00030E040E050E00E94FE0581E019C0609116
:100AB0005101709152018091530190915401223063
:100AC00041F424E630E040E050E00E94FE0582E080
:100AD00007C028EE33E040E050E00E94FE0583E0CE
:100AE000612F422F0E9405051F91089560935101C7
:100AF0007093520180935301909354014093550198
:100B000008950E94460285E790E00E9414020E9428
:100B1000850281EF90E00E9414010E9425050E9449
:100B2000FB000E94070189E490E00E94280184E60E
:100B300090E00E942D0120E030E04AE750E064E0C0
:100B400081E00E94270420E030E04CE750E06AE0BA
:100B500082E00E94270420E030E04DEA50E068E2A5
:100B600083E00E94270420E030E046EB50E064E19F
:100B700084E00E94270441E061E170E080E090E0C1
:100B80000E9476052FEF89E698E121508040904041
:100B9000E1F700C000000E94320278940E948804AD
:100BA00080E090E008950E942006A59F900DB49FDC
:100BB000900DA49F800D911D11240895991B79E03B
:100BC00004C0991F961708F0961B881F7A95C9F7DD
:100BD00080950895AA1BBB1B51E107C0AA1FBB1F2C
:100BE000A617B70710F0A61BB70B881F991F5A95B9
:100BF000A9F780959095BC01CD010895A1E21A2E28
:100C0000AA1BBB1BFD010DC0AA1FBB1FEE1FFF1FB0
:100C1000A217B307E407F50720F0A21BB30BE40B00
:100C2000F50B661F771F881F991F1A9469F7609547
:100C30007095809590959B01AC01BD01CF01089501
:100C4000A29FB001B39FC001A39F700D811D11240D
:100C5000911DB29F700D811D1124911D0895AEE06C
:100C6000B0E0E5E3F6E00C94D7080D891E8986E034
:100C70008C831A8309838FEF9FE79E838D83AE0158
:100C8000475E5F4F6F89788DCE0101960E945106B5
:100C9000EF81F885E00FF11F10822E96E4E00C94AE
:100CA000F308ACE0B0E0E7E5F6E00C94C9087C019D
:100CB0006B018A01FC0117821682838181FFBDC10D
:100CC000CE0101964C01F7019381F60193FD8591C8
:100CD00093FF81916F01882309F4ABC1853239F408
:100CE00093FD859193FF81916F01853229F4B701BE
:100CF00090E00E943908E7CF512C312C20E02032BF
:100D0000A0F48B3269F030F4803259F0833269F408
:100D100020612CC08D3239F0803339F4216026C037
:100D20002260246023C0286021C027FD27C030ED49
:100D3000380F3A3078F426FF06C0FAE05F9E300D97
:100D40001124532E13C08AE0389E300D1124332E07
:100D500020620CC08E3221F426FD6BC1206406C0D7
:100D60008C3611F4206802C0883641F4F60193FDF8
:100D7000859193FF81916F018111C1CF982F9F7D44
:100D80009554933028F40C5F1F4FFFE3F9830DC097
:100D9000833631F0833771F0833509F05BC022C0B0
:100DA000F801808189830E5F1F4F44244394512CA6
:100DB000540115C03801F2E06F0E711CF801A080DB
:100DC000B18026FF03C0652D70E002C06FEF7FEF9A
:100DD000C5012C870E942E082C0183012C852F77BA
:100DE000222E17C03801F2E06F0E711CF801A080AE
:100DF000B18026FF03C0652D70E002C06FEF7FEF6A
:100E0000C5012C870E9423082C012C852068222EE6
:100E1000830123FC1BC0832D90E048165906B0F4D3
:100E2000B70180E290E00E9439083A94F4CFF501CE
:100E300027FC859127FE81915F01B70190E00E9418
:100E4000390831103A94F1E04F1A51084114510415
:100E500071F7E5C0843611F0893639F5F80127FFBE
:100E600007C060817181828193810C5F1F4F08C030
:100E700060817181882777FD8095982F0E5F1F4FC5
:100E80002F76B22E97FF09C0909580957095619549
:100E90007F4F8F4F9F4F2068B22E2AE030E0A40191
:100EA0000E946B08A82EA81844C0853729F42F7E0D
:100EB000B22E2AE030E025C0F22FF97FBF2E8F3608
:100EC000C1F018F4883579F0B4C0803719F088374C
:100ED00021F0AFC02F2F2061B22EB4FE0DC08B2D9C
:100EE0008460B82E09C024FF0AC09F2F9660B92ED7
:100EF00006C028E030E005C020E130E002C020E17B
:100F000032E0F801B7FE07C0608171818281938170
:100F10000C5F1F4F06C06081718180E090E00E5F22
:100F20001F4FA4010E946B08A82EA818FB2DFF7765
:100F3000BF2EB6FE0BC02B2D2E7FA51450F4B4FE91
:100F40000AC0B2FC08C02B2D2E7E05C07A2C2B2D9A
:100F500003C07A2C01C0752C24FF0DC0FE01EA0DE0
:100F6000F11D8081803311F4297E09C022FF06C063
:100F70007394739404C0822F867809F0739423FDD0
:100F800013C020FF06C05A2C731418F4530C5718C2
:100F9000732C731468F4B70180E290E02C870E94F0
:100FA000390873942C85F5CF731410F4371801C0E9
:100FB000312C24FF12C0B70180E390E02C870E94FF
:100FC00039082C8522FF17C021FF03C088E590E077
:100FD00002C088E790E0B7010CC0822F867859F0F4
:100FE00021FD02C080E201C08BE227FD8DE2B70146
:100FF00090E00E943908A51438F4B70180E390E02E
:101000000E9439085A94F7CFAA94F401EA0DF11D11
:101010008081B70190E00E943908A110F5CF3320FC
:1010200009F451CEB70180E290E00E9439083A9469
:10103000F6CFF7018681978102C08FEF9FEF2C9644
:10104000E2E10C94E508FC0105906150704001104C
:10105000D8F7809590958E0F9F1F0895FC016150E1
:10106000704001900110D8F7809590958E0F9F1FCA
:1010700008950F931F93CF93DF93182F092FEB0140
:101080008B8181FD03C08FEF9FEF20C082FF10C0D6
:101090004E815F812C813D81421753077CF4E881AA
:1010A000F9819F012F5F3F4F39832883108306C04A
:1010B000E885F985812F0995892B29F72E813F81B4
:1010C0002F5F3F4F3F832E83812F902FDF91CF9152
:1010D0001F910F910895FA01AA27283051F120316C
:1010E00081F1E8946F936E7F6E5F7F4F8F4F9F4FBC
:1010F000AF4FB1E03ED0B4E03CD0670F781F891FFE
:101100009A1FA11D680F791F8A1F911DA11D6A0FCB
:10111000711D811D911DA11D20D009F468943F917E
:101120002AE0269F11243019305D3193DEF6CF017D
:101130000895462F4770405D4193B3E00FD0C9F743
:10114000F6CF462F4F70405D4A3318F0495D31FDB0
:101150004052419302D0A9F7EACFB4E0A695979503
:10116000879577956795BA95C9F7009761057105D9
:1011700008959B01AC010A2E069457954795379523
:101180002795BA95C9F7620F731F841F951FA01D7D
:1011900008952F923F924F925F926F927F928F921B
:1011A0009F92AF92BF92CF92DF92EF92FF920F93F6
:1011B0001F93CF93DF93CDB7DEB7CA1BDB0B0FB600
:1011C000F894DEBF0FBECDBF09942A8839884888BD
:1011D0005F846E847D848C849B84AA84B984C88453
:1011E000DF80EE80FD800C811B81AA81B981CE0F4A
:1011F000D11D0FB6F894DEBF0FBECDBFED0108952F
:04120000F894FFCF90
:1012040001640000003C3E01E803FFC0F9A4B0996A
:101214009282F8809050686F746F63656C6C20766E
:10122400302E30303100646973743A2025632025F0
:10123400752E30257520256300646973743A202562
:10124400632025752E25752025630025752E2575AB
:10125400202563206B7068206D70680025752E252D
:1012640075206B7068202563206D70680030202520
:1012740063206B7068206D70680030206B7068208C
:081284002563206D7068000075
:00000001FF
