:100000000C942A000C9467010C94C0010C944700D6
:100010000C9447000C9447000C9447000C94470044
:100020000C9447000C9447000C94C2000C944700B9
:100030000C9447000C9447000C9447000C94470024
:100040000C9447000C9447000C9447000C94470014
:100050000C94470011241FBECFE5D8E0DEBFCDBF12
:1000600010E0A0E6B0E0E0E8F2E102C005900D92F9
:10007000AE3FB107D9F711E0AEEFB0E001C01D927D
:10008000AD36B107E1F70E9408010C943E090C94CB
:1000900000008091FF0090910001A0910101B091BA
:1000A00002018093070190930801A0930901B09386
:1000B0000A0110920301109204011092050110929E
:1000C00006011092710008958091FF009091000147
:1000D000A0910101B091020180930301909304016A
:1000E000A0930501B093060181E080937100809395
:1000F000FE0008958091FE008823C1F06091030105
:1001000070910401809105019091060120910701F1
:10011000309108014091090150910A01621B730B53
:10012000840B950B0E947D041092FE00089560914F
:10013000FF007091000180910101909102016F5FB9
:100140007F4F8F4F9F4F6093FF007093000180930C
:1001500001019093020120917100222379F42091F2
:100160000701309108014091090150910A01621B79
:10017000730B840B950B42E00E94100608950E94B9
:10018000C80508951F920F920FB60F9211242F9356
:100190003F934F935F936F937F938F939F93AF930F
:1001A000BF93EF93FF930E948904FF91EF91BF915A
:1001B000AF919F918F917F916F915F914F913F91FF
:1001C0002F910F900FBE0F901F90189583B78860E6
:1001D00083BF8DE78CBF89B7826089BF83B7836097
:1001E00083BF089585B5886085BD85B5806185BD6F
:1001F00085B5816085BD89E683BD8F9A08950E948B
:10020000E802882321F00E94BA020E947104089536
:100210000E947B0280E690E00E9449028FEF90E00E
:100220000E9449010E94BF050E94E6000E94F20060
:1002300089E490E00E945D0184E690E00E94620102
:1002400081E064E04FEB50E020E030E00E94C10428
:1002500082E06AE047E950E020E030E00E94C1041B
:1002600084E064E14AE750E020E030E00E94C1040D
:100270008FEF99E6A8E181509040A040E1F700C0DF
:1002800000000E94670278940E94220580E090E0BE
:10029000089525B72C6025BF25B7236025BF2BB750
:1002A000206C2BBF21B3297F21BB22B3266022BB48
:1002B00090930C0180930B01089590931801809303
:1002C00017010895909312018093110108951F92D0
:1002D0000F920FB60F921124EF92FF920F931F937C
:1002E0002F933F934F935F936F937F938F939F933E
:1002F000AF93BF93EF93FF93E0910B01F0910C014B
:1003000080819181A281B3812091130130911401E8
:1003100040911501509116017C018D01E21AF30AFA
:10032000040B150BA80197012A3031054105510531
:1003300094F08093130190931401A0931501B0934E
:100340001601E0911701F091180109958E9A82B378
:1003500090E4892782BBFF91EF91BF91AF919F916C
:100360008F917F916F915F914F913F912F911F914D
:100370000F91FF90EF900F900FBE0F901F90189568
:100380001F920F920FB60F921124EF92FF920F93CC
:100390001F932F933F934F935F936F937F938F930D
:1003A0009F93AF93BF93EF93FF93E0910B01F09175
:1003B0000C0180819181A281B38120910D01309146
:1003C0000E0140910F01509110017C018D01E21A44
:1003D000F30A040B150BA80197012A3031054105DA
:1003E000510594F080930D0190930E01A0930F019D
:1003F000B0931001E0911101F091120109958D9ACD
:1004000082B390E2892782BBFF91EF91BF91AF91B8
:100410009F918F917F916F915F914F913F912F911C
:100420001F910F91FF90EF900F900FBE0F901F90B4
:10043000189580FF02C0DC9A01C0DC9881FF02C0E1
:10044000DD9A01C0DD9882FF02C0DE9A01C0DE980D
:1004500083FF02C0DF9A0895DF9808951F93182F35
:10046000DB9A82958F700E941902DB98DB9A812FAC
:100470000E941902DB9885E88A95F1F700001F9128
:100480000895DA980E942E020895DA9A0E942E02A8
:100490000895EF92FF92CF93DF93E82EE7017E015C
:1004A000F92EE70102C00E94450289918823D9F7FD
:1004B000DF91CF91FF90EF9008956295660F660FE0
:1004C000607C680F862F80680E944102089581E059
:1004D0000E9441028FE99FE00197F1F700C0000000
:1004E000089582E00E9441028FE99FE00197F1F7B1
:1004F00000C0000008951F93D49AD59AD69AD79A2F
:10050000D39AD29A8FE295E70197F1F700C00000E5
:10051000DA98DB9813E0DB9A83E00E941902DB98FB
:100520008FE097E20197F1F700C00000115099F7B2
:10053000DB9A82E00E941902DB988FEC97E001972A
:10054000F1F700C0000088E20E94410288E00E94AA
:10055000410281E00E9441028FE99FE00197F1F79B
:1005600000C0000086E00E9441028CE00E9441022F
:100570001F91089515BA8FE084BB90EF95BB23B30C
:1005800015BA94BB85BB33B330953F7080E090E0E3
:1005900030FF02C0382F07C001968430910511F05A
:1005A0003695F6CF30E022952F7020952F7080E0A1
:1005B00090E020FD07C001968430910511F026954A
:1005C000F8CF80E0932F990F990F9F5F890F0895BF
:1005D00015BA8FE084BB90EF95BB23B315BA94BBDB
:1005E00085BB83B38F708F3039F4922F907F81E079
:1005F000903F19F480E0089581E008950E94E80298
:10060000882339F00E94BA0290E090931A018093F7
:1006100019010895CF92DF92EF92FF920F931F93EB
:10062000DF93CF93CDB7DEB7C055D0400FB6F89467
:10063000DEBF0FBECDBF6B017C0140931B01842F39
:100640008750823078F48091E9009091EA00473039
:1006500011F4019601C001979093EA008093E9009C
:1006600010921C018091E9009091EA0064E670E02C
:100670000E9427069E01275D3F4F8A309105A8F40E
:100680004DB75EB74C5050400FB6F8945EBF0FBEEA
:100690004DBFEDB7FEB73196ADB7BEB712963C93DE
:1006A0002E93119722E730E014C04DB75EB74C503F
:1006B00050400FB6F8945EBF0FBE4DBFEDB7FEB70A
:1006C0003196ADB7BEB712963C932E93119729E899
:1006D00030E0338322832FE730E035832483778330
:1006E0006683918780878EE790E0938782870E9458
:1006F0005D06EDB7FEB73C960FB6F894FEBF0FBE91
:10070000EDBF00911B01C114D104E104F10409F40F
:100710008EC06091E9007091EA0080E090E0A7014E
:1007200096010E943B0669ED7AE0269FC001279F53
:10073000900D369F900D11249093EC008093EB0068
:10074000202F2350223010F40093ED004091ED0053
:100750009E012F5F3F4F433041F54DB75EB74A5082
:1007600050400FB6F8945EBF0FBE4DBFEDB7FEB759
:100770003196ADB7BEB712963C932E9311972FE9E1
:1007800030E03383228364E670E00E94270675839D
:100790006483978386838EE790E0918780870E94A9
:1007A0005D06EDB7FEB73A9677C0AC01440F551F12
:1007B00066E0880F991F6A95E1F7841B950BE4E6C4
:1007C000F0E0BF010E9427064DB75EB74A50504087
:1007D0000FB6F8945EBF0FBE4DBF0DB71EB70F5FCB
:1007E0001F4FADB7BEB712963C932E93119782EB75
:1007F00090E0D80113969C938E931297CB01BF0182
:100800000E942706F80175836483978386838EE7A9
:1008100090E0918780870E945D064DB75EB7465F86
:100820005F4F0FB6F8945EBF0FBE4DBF3AC0802F2A
:100830008350823010F40093ED008091ED009E0112
:100840002F5F3F4F833079F400D000D000D0EDB758
:10085000FEB73196ADB7BEB712963C932E93119763
:1008600084EC90E00EC000D000D000D0EDB7FEB711
:100870003196ADB7BEB712963C932E93119787ED84
:1008800090E0938382838EE790E0958384830E9437
:100890005D06EDB7FEB736960FB6F894FEBF0FBEF5
:1008A000EDBF80E060E00E945D02CE0101960E94F3
:1008B000490280E061E00E945D02CE0189960E94BB
:1008C0004902C05BDF4F0FB6F894DEBF0FBECDBF4D
:1008D000CF91DF911F910F91FF90EF90DF90CF901C
:1008E0000895482F6091EE007091EF008091F00024
:1008F0009091F1000E940A0308956093EE007093B6
:10090000EF008093F0009093F10040E00E940A0312
:100910000895CF93DF93C0E0D0E0FE0183E0EE0FB7
:10092000FF1F8A95E1F7EC0FFD1FE15EFE4F858109
:100930009681A781B0850196A11DB11D85839683FF
:10094000A783B0876581768187819085248130E097
:1009500040E050E00E943B0661157105810591055C
:1009600049F480911D0190911E01019690931E0102
:1009700080931D012196C830D10579F6DF91CF9182
:10098000089590E0FC0173E0EE0FFF1F7A95E1F708
:10099000E80FF91FE15EFE4F5183408333832283CA
:1009A0006483158216821782108608958091F20062
:1009B0008F3F81F08091F200992787FD9095FC018F
:1009C000A3E0EE0FFF1FAA95E1F7E80FF91FE15E24
:1009D000FE4F148208952091F2002F3F11F12091D3
:1009E000F200332727FD3095F90143E0EE0FFF1F9A
:1009F0004A95E1F7E20FF31FE15EFE4F918380839A
:100A00008091F200992787FD9095FC01B3E0EE0FED
:100A1000FF1FBA95E1F7E80FF91FE15EFE4F738300
:100A20006283089590E0FC01A3E0EE0FFF1FAA95FA
:100A3000E1F7E80FF91FE15EFE4F71836083538396
:100A4000428308951F93CF93DF931FEF80911D0181
:100A500090911E010097D1F3F89460E070E0DB0103
:100A600043E0AA0FBB1F4A95E1F7A60FB71FA15E8F
:100A7000BE4FED01249614968C911497882359F15A
:100A8000FD01359615962D913D914D915C911897EC
:100A900014968C9190E0A0E0B0E0281739074A073F
:100AA0005B07C8F080819181A281B3812881821B7C
:100AB0009109A109B10980839183A283B3836093D3
:100AC000F20080911D0190911E01019790931E01EB
:100AD00080931D0106C06F5F7F4F6830710509F07C
:100AE000BECF78948091F20087FDB0CF8091F20064
:100AF000992787FD9095FC0133E0EE0FFF1F3A9593
:100B0000E1F7E80FF91FE15EFE4F0190F081E02D63
:100B10008091F200992787FD9095DC0123E0AA0FD0
:100B2000BB1F2A95E1F7A80FB91FA15EBE4F129611
:100B30008D919C91139709951093F20087CF582FB0
:100B4000262F842F5430D0F495B39F6095BB6AE074
:100B50000E941B06E92FF0E0ED50FF4F808188BB1B
:100B60002111C79885B321E030E002C0220F331F66
:100B70005A95E2F72095206F282325BB08958FEF23
:100B800087BB18BA84B38F6084BB85B385BB0895D7
:100B90001F9380916C0190E0019683709070282FD4
:100BA00080936C01882341F011E080916B01281340
:100BB00010E02130B1F405C080E060E040916701B1
:100BC0002BC06091670170916801809169019091DB
:100BD0006A012AE030E040E050E00E943B0681E0FC
:100BE00019C06091670170916801809169019091CD
:100BF0006A01223041F424E630E040E050E00E94F7
:100C00003B0682E007C028EE33E040E050E00E945F
:100C10003B0683E0612F422F0E949F051F9108959C
:100C200060936701709368018093690190936A01F2
:100C300040936B010895991B79E004C0991F9617A2
:100C400008F0961B881F7A95C9F780950895AA1B0E
:100C5000BB1B51E107C0AA1FBB1FA617B70710F0A7
:100C6000A61BB70B881F991F5A95A9F780959095D9
:100C7000BC01CD010895A1E21A2EAA1BBB1BFD01E8
:100C80000DC0AA1FBB1FEE1FFF1FA217B307E4076B
:100C9000F50720F0A21BB30BE40BF50B661F771FC3
:100CA000881F991F1A9469F76095709580959095A3
:100CB0009B01AC01BD01CF010895AEE0B0E0E3E6D9
:100CC000F6E00C9415090D891E8986E08C831A8341
:100CD00009838FEF9FE79E838D839E01275E3F4FA1
:100CE000CE0101966F89788DA9010E948006EF815F
:100CF000F885E00FF11F10822E96E4E00C94310984
:100D0000ACE0B0E0E6E8F6E00C9407096C011B01EA
:100D10008A01FC0117821682838181FFD1C12E01D5
:100D20000894411C511CF6019381F10193FD8591BA
:100D300093FF81911F01882309F4BEC1853239F4E4
:100D400093FD859193FF81911F01853229F490E0F5
:100D5000B6010E947D08E7CFEE24FF2420E0203278
:100D6000B0F48B3269F08C3228F4803251F0833247
:100D700071F40BC08D3239F0803349F421602CC0FE
:100D80002260246029C0286027C0206125C027FD7B
:100D90002CC0382F30533A3098F426FF08C08E2DDF
:100DA000880FE82EEE0CEE0CE80EE30E15C08F2D2A
:100DB000880FF82EFF0CFF0CF80EF30E20620CC00B
:100DC0008E3221F426FD78C1206406C08C3611F4E1
:100DD000206802C0883649F4F10193FD859193FFA4
:100DE00081911F01882309F0BACF982F9554933031
:100DF00018F09052933028F40C5F1F4FFFE3F983F3
:100E00000DC0833631F0833771F0833509F060C04F
:100E100022C0F801808189830E5F1F4F420171E07B
:100E2000A72EB12C16C062E0662E712C600E711ECA
:100E3000F8018080918026FF03C06E2D70E002C013
:100E40006FEF7FEFC4012C870E9472085C01830161
:100E50002C852F7717C052E0652E712C600E711E05
:100E6000F8018080918026FF03C06E2D70E002C0E3
:100E70006FEF7FEFC4012C870E9467085C012C850F
:100E80002068830123FD20C008C080E290E0B60105
:100E90002C870E947D08FA942C858F2D90E0A8164F
:100EA000B90698F311C0F40127FD859127FF8191C0
:100EB0004F0190E0B6012C870E947D082C85F1102F
:100EC000FA940894A108B108A114B10461F7F1C023
:100ED000843611F0893649F527FF08C0F801608192
:100EE0007181828193810C5F1F4F09C0F80160817D
:100EF0007181882777FD8095982F0E5F1F4F4FE6F1
:100F0000B42EB22297FF09C0909580957095619597
:100F10007F4F8F4F9F4FF0E8BF2AA2012AE030E0B9
:100F20000E94A908782E741845C0853731F43FEE29
:100F3000B32EB2222AE030E025C099EFB92EB222BA
:100F40008F36C1F0803720F4883509F0B5C00DC068
:100F5000803721F0883709F0AFC002C020E1B22A03
:100F6000B4FE0BC084E0B82A08C0B4FE09C0E6E0B5
:100F7000BE2A06C028E030E005C020E130E002C013
:100F800020E132E0B7FE08C0F80160817181828102
:100F900093810C5F1F4F07C0F8016081718180E071
:100FA00090E00E5F1F4FA2010E94A908782E7418CE
:100FB000FFE7BF22B6FE0BC02EEFB2227E1438F43C
:100FC000B4FE07C0B2FC05C08FEEB82202C0A72C49
:100FD00001C0AE2C8B2D90E0B4FE0DC0FE01E70DDC
:100FE000F11D2081203319F4E9EEBE2209C0A3943B
:100FF000B2FE06C004C086789070009709F0A394F2
:101000008B2C9924B3FC14C0B0FE0FC0AF1428F48D
:10101000E72CEF0CEA18AF2C08C0E72C06C080E2E2
:1010200090E0B6010E947D08A394AF14C0F304C001
:10103000AF1410F4FA1801C0FF2484FE0FC080E33F
:1010400090E0B6010E947D0882FE1FC081FE03C0B1
:1010500088E590E010C088E790E00DC0C401867874
:101060009070009791F081FC02C080E201C08BE299
:10107000B7FC8DE290E0B6010E947D0806C080E3D7
:1010800090E0B6010E947D08EA947E14C0F37A9441
:10109000F201E70DF11D808190E0B6010E947D080C
:1010A0007720A9F706C080E290E0B6010E947D0893
:1010B000FA94FF20C1F737CEF6012681378102C0AE
:1010C0002FEF3FEFC9012C96E2E10C942309FC01BC
:1010D0000590615070400110D8F7809590958E0F63
:1010E0009F1F0895FC016150704001900110D8F7D6
:1010F000809590958E0F9F1F08950F931F93CF9308
:10110000DF938C01EB018B8181FF1BC082FF0DC03F
:101110002E813F818C819D812817390764F4E881F5
:10112000F9810193F983E88306C0E885F985802F6A
:101130000995009731F48E819F8101969F838E835C
:1011400002C00FEF1FEFC801DF91CF911F910F91E8
:101150000895FA01AA27283051F1203181F1E8944D
:101160006F936E7F6E5F7F4F8F4F9F4FAF4FB1E09A
:101170003ED0B4E03CD0670F781F891F9A1FA11D95
:10118000680F791F8A1F911DA11D6A0F711D811D96
:10119000911DA11D20D009F468943F912AE0269F5B
:1011A00011243019305D3193DEF6CF010895462FBA
:1011B0004770405D4193B3E00FD0C9F7F6CF462F9B
:1011C0004F70405D4A3318F0495D31FD4052419304
:1011D00002D0A9F7EACFB4E0A695979587957795C1
:1011E0006795BA95C9F700976105710508959B0148
:1011F000AC010A2E06945795479537952795BA95D1
:10120000C9F7620F731F841F951FA01D08952F92A9
:101210003F924F925F926F927F928F929F92AF9286
:10122000BF92CF92DF92EF92FF920F931F93CF93D3
:10123000DF93CDB7DEB7CA1BDB0B0FB6F894DEBF6A
:101240000FBECDBF09942A88398848885F846E8490
:101250007D848C849B84AA84B984C884DF80EE80DA
:10126000FD800C811B81AA81B981CE0FD11D0FB6E3
:10127000F894DEBF0FBECDBFED010895F894FFCF07
:1012800050686F746F63656C6C2076302E3030312F
:10129000000164697374616E63653A2025632025DB
:1012A000752E3025752025630064697374616E6343
:1012B000653A2025632025752E2575202563002598
:1012C000752E2575202563206B70682020206D7099
:1012D000680025752E257520206B706820256320F9
:1012E0006D7068004572726F72202563206B7068A4
:1012F0002020206D7068004572726F7220206B7024
:1013000068202563206D706800E8036400036400B2
:0E1310000000FFC0F9A4B0999282F88090000E
:00000001FF
