:100000000C942A000C9426010C944D010C9447008A
:100010000C9447000C9447000C9447000C94470044
:100020000C9447000C9447000C94D7000C944700A4
:100030000C9447000C9447000C9447000C94470024
:100040000C9447000C9447000C9447000C94470014
:100050000C94470011241FBECFE5D8E0DEBFCDBF12
:1000600010E0A0E6B0E0ECE9F0E102C005900D92EE
:10007000AC3EB107D9F711E0ACEEB0E001C01D9283
:10008000A135B107E1F70E94E7040C944C080C94E9
:1000900000008091F5009091F600A091F700B091DA
:1000A000F8008093F1009093F200A093F300B093D6
:1000B000F4001092ED001092EE001092EF001092FA
:1000C000F0001092600008958091F5009091F60084
:1000D000A091F700B091F8008093ED009093EE00AE
:1000E000A093EF00B093F00081E0809360008093D4
:1000F000EC0008950C947C040F931F938091F500FD
:100100009091F600A091F700B091F8000196A11D22
:10011000B11D8093F5009093F600A093F700B09383
:10012000F80020916000211115C04091F10050911C
:10013000F2006091F3007091F4008C019D01041BAA
:10014000150B260B370BC901B80142E01F910F9127
:100150000C94DC041F910F9108950E943A028823A9
:1001600021F00E9409020C94670308950F931F93D6
:100170008091EC008823C1F06091ED007091EE0059
:100180008091EF009091F0000091F1001091F20049
:100190002091F3003091F400601B710B820B930BE4
:1001A0000E945C031092EC001F910F9108951F9222
:1001B0000F920FB60F9211242F933F934F935F939B
:1001C0006F937F938F939F93AF93BF93EF93FF931F
:1001D0000E947203FF91EF91BF91AF919F918F9118
:1001E0007F916F915F914F913F912F910F900FBE33
:1001F0000F901F90189583B7886083BF8AEF8CBFDC
:1002000089B7826089BF83B7836083BF089585B54E
:10021000886085BD85B585BD85B5866085BD85E968
:1002200083BD089585B78C6085BF85B7836085BF22
:100230008BB7806C8BBF08959093FC008093FB007C
:1002400008959093FA008093F90008951F920F92F9
:100250000FB60F9211242F933F934F935F936F9399
:100260007F938F939F93AF93BF93EF93FF93E0910F
:10027000FB00F091FC000995FF91EF91BF91AF91C8
:100280009F918F917F916F915F914F913F912F91AE
:100290000F900FBE0F901F9018951F920F920FB6E0
:1002A0000F9211242F933F934F935F936F937F93FC
:1002B0008F939F93AF93BF93EF93FF93E091F900D8
:1002C000F091FA000995FF91EF91BF91AF919F9145
:1002D0008F917F916F915F914F913F912F910F90EF
:1002E0000FBE0F901F90189580FF02C0DC9A01C0CE
:1002F000DC9881FF02C0DD9A01C0DD9882FF02C058
:10030000DE9A01C0DE9883FF02C0DF9A0895DF986D
:100310000895CF93C82FDB9A82958F700E94740145
:10032000DB98DB9A8C2F0E947401DB9887EC90E0BD
:100330000197F1F700C00000CF910895DA980C946E
:100340008901DA9A0C948901CF93DF93EC018991AA
:10035000882319F00E94A101FACFDF91CF9108956F
:1003600090E4699F800D112480680C949E0181E0C7
:100370000E949E018FE39FE10197F1F700C000000A
:10038000089582E00E949E018FE39FE10197F1F7BB
:1003900000C000000895CF93D49AD59AD69AD79AE0
:1003A000D39AD29A8FE59AEE0197F1F700C0000038
:1003B000DA98DB98C3E0DB9A83E00E947401DB9853
:1003C0008FE19EE40197F1F700C00000C15099F75A
:1003D000DB9A82E00E947401DB988FE99FE001972D
:1003E000F1F700C0000088E20E949E0188E00E94B0
:1003F0009E0181E00E949E018FE39FE10197F1F74A
:1004000000C0000086E00E949E018CE0CF910C9419
:100410009E0115BA8FE084BB20EF25BB93B315BABC
:1004200024BB85BB43B340954F7020E030E0842F60
:10043000817040FF02C0822F06C046952F5F3F4F5C
:1004400024303105A1F792959F7090959F7020E020
:1004500030E0492F417090FF02C0422F06C09695B0
:100460002F5F3F4F24303105A1F7880F880F8F5F32
:10047000840F089515BA8FE084BB90EF95BB23B32A
:1004800015BA94BB85BB83B38F708F3039F4922F2C
:10049000907F81E0903F19F480E0089581E0089515
:1004A0000E943A02882339F00E94090290E090935A
:1004B000FE008093FD0008958F929F92AF92BF92AD
:1004C000DF92EF92FF920F931F93CF93DF93CDB7FD
:1004D000DEB7C055D1090FB6F894DEBF0FBECDBF51
:1004E0004B015C014093000189EF840F823078F466
:1004F0008091680090916900473011F4019601C025
:10050000019790936900809368001092FF0080919A
:1005100068009091690064E670E00E9436059E01D3
:100520002F5F3F4F79018A30910568F41F922EE7C3
:100530002F939F938F937F936F931F928FE78F9348
:1005400085E790E00CC01F922EE72F939F938F9327
:100550007F936F931F928FE78F938CE890E09F9328
:100560008F93FF92EF920E947B050FB6F894DEBF47
:100570000FBECDBFD09000018E01075D1F4F8114CB
:100580009104A104B10409F455C060916800709110
:10059000690080E090E0A50194010E944A05A9ED60
:1005A000BAE00E941F0524E630E040E050E00E94DF
:1005B0004A05C90130936700209366006DEF6D0D09
:1005C000623010F4D092650060916500633071F480
:1005D0001F922EE72F9364E670E00E9436059F93EA
:1005E0008F937F936F9382EA90E018C06EE3629FCF
:1005F000C001639F900D112424E630E0B9010E94F0
:100600003605CB011F924EE74F93B9010E94360584
:100610009F938F937F936F9385EB90E09F938F933E
:100620001F930F930E947B050FB6F894DEBF0FBE99
:10063000CDBF21C08DEF8D0D823010F4D0926500BA
:1006400080916500833031F41F928EE78F9387ECA1
:1006500090E005C01F928EE78F938AED90E09F9304
:100660008F931F930F930E947B050F900F900F9015
:100670000F900F900F9060E380E30E94B001C801DB
:100680000E94A40161E380E30E94B001C7010E94BF
:10069000A401C05BDF4F0FB6F894DEBF0FBECDBF25
:1006A000DF91CF911F910F91FF90EF90DF90BF905E
:1006B000AF909F908F900895609361007093620057
:1006C000809363009093640040E00C945C02482F98
:1006D000609161007091620080916300909164006C
:1006E0000C945C021F93CF93DF93C0E0D0E019E03D
:1006F0001C9FF0011D9FF00D1124EF5FFE4F8581BF
:100700009681A781B0850196A11DB11D8583968331
:10071000A783B0876581768187819085248130E0C9
:1007200040E050E00E944A05672B682B692B49F492
:100730008091490190914A01019690934A018093DA
:1007400049012196C830D10599F6DF91CF911F91CB
:10075000089599E0899FF0011124EF5FFE4F5183C6
:100760004083338322836483158216821782108626
:10077000089580916A008F3F49F0E0916A0089E016
:10078000E802F0011124EF5FFE4F148208952091DA
:100790006A002F3FA1F030916A0029E03203D001B6
:1007A0001124AF5FBE4F11969C938E9330916A00D7
:1007B0003203F0011124EF5FFE4F738362830895CB
:1007C00099E0899FF0011124EF5FFE4F71836083F0
:1007D00053834283089519E00FEF8091490190916E
:1007E0004A01892BD1F3F89420E030E0129FD00128
:1007F000139FB00D1124AF5FBE4FED0124961496E8
:100800008C911497882359F1FD01359615964D91D9
:100810005D916D917C91189714968C9190E0A0E079
:10082000B0E0481759076A077B07C8F080819181BB
:10083000A281B3813881831B9109A109B109808309
:100840009183A283B38320936A00809149019091A0
:100850004A01019790934A018093490105C02F5F97
:100860003F4F2830310511F6789480916A0087FD5A
:10087000B4CF20916A002103F0011124EF5FFE4FF5
:100880000190F081E02D20916A002103D001112414
:10089000AF5FBE4F12968D919C911397099500936F
:1008A0006A009BCF582F262F842F98B39F6098BB48
:1008B0006AE00E942A05E92FF0E0E559FF4F8081A8
:1008C0008BBB222319F09BB39F679BBB88B321E0AE
:1008D00030E0052E01C0220F0A94EAF72095206F20
:1008E000282328BB08958FEF8ABB1BBA87B38F607C
:1008F00087BB88B388BB0895CF9380914B018F5FEE
:1009000080934B01882309F441C0C1E090914C01D0
:100910008913C0E0813091F460914D0170914E01D6
:1009200080914F019091500124E630E040E050E08A
:100930000E944A05422F6C2F81E039C0823091F429
:1009400060914D0170914E0180914F019091500145
:1009500028EE33E040E050E00E944A05422F6C2F21
:1009600082E025C0833031F560914D0170914E01D8
:1009700080914F019091500120E137E240E050E03A
:100980000E944A05422F6C2F83E011C060914D01F7
:1009900070914E0180914F01909150012AE030E01A
:1009A00040E050E00E944A05422F60E080E0CF9195
:1009B0000C945204CF91089560934D0170934E01B1
:1009C00080934F019093500140934C0108950E94F1
:1009D000CB010E9412010E9473040E94FB000E943E
:1009E000070189E490E00E941C0184E690E00E94E7
:1009F000210120E030E04AE750E064E081E00E941D
:100A0000A90320E030E04CE750E06AE082E00E9479
:100A1000A90320E030E04DEA50E068E283E00E9464
:100A2000A90320E030E046EB50E064E184E00E945E
:100A3000A90378940E94EB0380E090E008950E945F
:100A40006C05A59F900DB49F900DA49F800D911DE6
:100A500011240895991B79E004C0991F961708F096
:100A6000961B881F7A95C9F780950895AA1BBB1B12
:100A700051E107C0AA1FBB1FA617B70710F0A61B9E
:100A8000B70B881F991F5A95A9F780959095BC01BF
:100A9000CD010895A1E21A2EAA1BBB1BFD010DC0BA
:100AA000AA1FBB1FEE1FFF1FA217B307E407F5071E
:100AB00020F0A21BB30BE40BF50B661F771F881FFA
:100AC000991F1A9469F760957095809590959B0190
:100AD000AC01BD01CF010895A29FB001B39FC00139
:100AE000A39F700D811D1124911DB29F700D811D5A
:100AF0001124911D0895AEE0B0E0E1E8F5E00C941A
:100B000023080D891E8986E08C831A8309838FEF61
:100B10009FE79E838D83AE01475E5F4F6F89788D1F
:100B2000CE0101960E949D05EF81F885E00FF11F2F
:100B300010822E96E4E00C943F08ACE0B0E0E3EACB
:100B4000F5E00C9415087C016B018A01FC01178209
:100B50001682838181FFBDC1CE0101964C01F70150
:100B60009381F60193FD859193FF81916F01882315
:100B700009F4ABC1853239F493FD859193FF8191DE
:100B80006F01853229F4B70190E00E948507E7CF15
:100B9000512C312C20E02032A0F48B3269F030F45B
:100BA000803259F0833269F420612CC08D3239F0E3
:100BB000803339F4216026C02260246023C028607D
:100BC00021C027FD27C030ED380F3A3078F426FFDA
:100BD00006C0FAE05F9E300D1124532E13C08AE048
:100BE000389E300D1124332E20620CC08E3221F439
:100BF00026FD6BC1206406C08C3611F4206802C04B
:100C0000883641F4F60193FD859193FF81916F0140
:100C10008111C1CF982F9F7D9554933028F40C5F9C
:100C20001F4FFFE3F9830DC0833631F0833771F036
:100C3000833509F05BC022C0F801808189830E5F93
:100C40001F4F44244394512C540115C03801F2E045
:100C50006F0E711CF801A080B18026FF03C0652DC6
:100C600070E002C06FEF7FEFC5012C870E947A070A
:100C70002C0183012C852F77222E17C03801F2E03A
:100C80006F0E711CF801A080B18026FF03C0652D96
:100C900070E002C06FEF7FEFC5012C870E946F07E5
:100CA0002C012C852068222E830123FC1BC0832D60
:100CB00090E048165906B0F4B70180E290E00E9437
:100CC00085073A94F4CFF50127FC859127FE8191A1
:100CD0005F01B70190E00E94850731103A94F1E07E
:100CE0004F1A51084114510471F7E5C0843611F0D0
:100CF000893639F5F80127FF07C06081718182814B
:100D000093810C5F1F4F08C060817181882777FD38
:100D10008095982F0E5F1F4F2F76B22E97FF09C038
:100D200090958095709561957F4F8F4F9F4F20686C
:100D3000B22E2AE030E0A4010E94B707A82EA8181E
:100D400044C0853729F42F7EB22E2AE030E025C03A
:100D5000F22FF97FBF2E8F36C1F018F4883579F065
:100D6000B4C0803719F0883721F0AFC02F2F206131
:100D7000B22EB4FE0DC08B2D8460B82E09C024FFA6
:100D80000AC09F2F9660B92E06C028E030E005C04B
:100D900020E130E002C020E132E0F801B7FE07C0F8
:100DA00060817181828193810C5F1F4F06C06081D9
:100DB000718180E090E00E5F1F4FA4010E94B70791
:100DC000A82EA818FB2DFF77BF2EB6FE0BC02B2D2B
:100DD0002E7FA51450F4B4FE0AC0B2FC08C02B2D1F
:100DE0002E7E05C07A2C2B2D03C07A2C01C0752CC9
:100DF00024FF0DC0FE01EA0DF11D8081803311F446
:100E0000297E09C022FF06C07394739404C0822F08
:100E1000867809F0739423FD13C020FF06C05A2C76
:100E2000731418F4530C5718732C731468F4B70127
:100E300080E290E02C870E94850773942C85F5CF83
:100E4000731410F4371801C0312C24FF12C0B701FD
:100E500080E390E02C870E9485072C8522FF17C035
:100E600021FF03C088E590E002C088E790E0B70169
:100E70000CC0822F867859F021FD02C080E201C0AB
:100E80008BE227FD8DE2B70190E00E948507A51453
:100E900038F4B70180E390E00E9485075A94F7CFB9
:100EA000AA94F401EA0DF11D8081B70190E00E943F
:100EB0008507A110F5CF332009F451CEB70180E2A8
:100EC00090E00E9485073A94F6CFF70186819781DA
:100ED00002C08FEF9FEF2C96E2E10C943108FC01E9
:100EE0000590615070400110D8F7809590958E0F55
:100EF0009F1F0895FC016150704001900110D8F7C8
:100F0000809590958E0F9F1F08950F931F93CF93F9
:100F1000DF93182F092FEB018B8181FD03C08FEF29
:100F20009FEF20C082FF10C04E815F812C813D81E8
:100F3000421753077CF4E881F9819F012F5F3F4FEF
:100F400039832883108306C0E885F985812F0995A8
:100F5000892B29F72E813F812F5F3F4F3F832E83BF
:100F6000812F902FDF91CF911F910F910895FA015A
:100F7000AA27283051F1203181F1E8946F936E7FD8
:100F80006E5F7F4F8F4F9F4FAF4FB1E03ED0B4E0C9
:100F90003CD0670F781F891F9A1FA11D680F791F0A
:100FA0008A1F911DA11D6A0F711D811D911DA11D1B
:100FB00020D009F468943F912AE0269F112430192B
:100FC000305D3193DEF6CF010895462F4770405DC6
:100FD0004193B3E00FD0C9F7F6CF462F4F70405D75
:100FE0004A3318F0495D31FD4052419302D0A9F7D0
:100FF000EACFB4E0A6959795879577956795BA95CA
:10100000C9F700976105710508959B01AC010A2E8F
:1010100006945795479537952795BA95C9F7620F66
:10102000731F841F951FA01D08952F923F924F920A
:101030005F926F927F928F929F92AF92BF92CF9268
:10104000DF92EF92FF920F931F93CF93DF93CDB771
:10105000DEB7CA1BDB0B0FB6F894DEBF0FBECDBFE9
:1010600009942A88398848885F846E847D848C84BA
:101070009B84AA84B984C884DF80EE80FD800C81C3
:101080001B81AA81B981CE0FD11D0FB6F894DEBFA6
:0C1090000FBECDBFED010895F894FFCF16
:10109C000164000000036400E803FFC0F9A4B099E8
:1010AC009282F8809064697374616E63653A20254E
:1010BC00752025752E30257520257500646973748F
:1010CC00616E63653A2025752025752E25752025C2
:1010DC00750025752E2575202575206B70682020D0
:1010EC00206D70680025752E257520206B7068208A
:1010FC002575206D7068004572726F722025752001
:10110C006B70682020206D7068004572726F7220C1
:0C111C00206B7068202575206D70680045
:00000001FF
