:100000000C942A000C942C010C9455010C9447007C
:100010000C9447000C9447000C9447000C94470044
:100020000C9447000C9447000C94D7000C944700A4
:100030000C9447000C9447000C9447000C94470024
:100040000C9447000C9447000C9447000C94470014
:100050000C94470011241FBECFE5D8E0DEBFCDBF12
:1000600010E0A0E6B0E0EAE4F0E102C005900D92F5
:10007000AA3EB107D9F711E0AAEEB0E001C01D9287
:10008000AF34B107E1F70E94C1040C9423080C942B
:1000900000008091F3009091F400A091F500B091E0
:1000A000F6008093EF009093F000A093F100B093DE
:1000B000F2001092EB001092EC001092ED00109202
:1000C000EE001092600008958091F3009091F4008A
:1000D000A091F500B091F6008093EB009093EC00B6
:1000E000A093ED00B093EE0081E0809360008093D8
:1000F000EA0008950C9474040F931F938091F30009
:100100009091F400A091F500B091F6000196A11D28
:10011000B11D8093F3009093F400A093F500B09389
:10012000F60020916000211115C04091EF00509120
:10013000F0006091F1007091F2008C019D01041BB0
:10014000150B260B370BC901B80142E01F910F9127
:100150000C94B6041F910F9108950E9431028823D8
:1001600021F00E9418020C94620308950F931F93CC
:100170008091EA008823C1F06091EB007091EC005F
:100180008091ED009091EE000091EF001091F00051
:100190002091F1003091F200601B710B820B930BE8
:1001A0000E9457031092EA001F910F9108951F9229
:1001B0000F920FB60F9211242F933F934F935F939B
:1001C0006F937F938F939F93AF93BF93EF93FF931F
:1001D0000E946D03FF91EF91BF91AF919F918F911D
:1001E0007F916F915F914F913F912F910F900FBE33
:1001F0000F901F90189583B7886083BF8AEF8CBFDC
:1002000089B7826089BF83B7836083BF089585B54E
:10021000886085BD85B585BD85B5866085BD85E968
:1002200083BD089585B78C6085BF85B7836085BF22
:100230008BB7806C8BBF81B3897F81BB82B38660B3
:1002400082BB08959093FA008093F90008959093EB
:10025000F8008093F70008951F920F920FB60F9247
:1002600011242F933F934F935F936F937F938F93BB
:100270009F93AF93BF93EF93FF93E091F900F091B9
:10028000FA0009958E9A9698FF91EF91BF91AF91E0
:100290009F918F917F916F915F914F913F912F919E
:1002A0000F900FBE0F901F9018951F920F920FB6D0
:1002B0000F9211242F933F934F935F936F937F93EC
:1002C0008F939F93AF93BF93EF93FF93E091F700CA
:1002D000F091F8000995FF91EF91BF91AF919F9137
:1002E0008F917F916F915F914F913F912F910F90DF
:1002F0000FBE0F901F90189580FF02C0DC9A01C0BE
:10030000DC9881FF02C0DD9A01C0DD9882FF02C047
:10031000DE9A01C0DE9883FF02C0DF9A0895DF985D
:100320000895CF93C82FDB9A82958F700E947C012D
:10033000DB98DB9A8C2F0E947C01DB9887EC90E0A5
:100340000197F1F700C00000CF910895DA980C945E
:100350009101DA9A0C949101CF93DF93EC0189918A
:10036000882319F00E94A901FACFDF91CF91089557
:1003700090E4699F800D112480680C94A60181E0AF
:100380000E94A6018FE39FE10197F1F700C00000F2
:10039000089582E00E94A6018FE39FE10197F1F7A3
:1003A00000C000000895CF93D49AD59AD69AD79AD0
:1003B000D39AD29A8FE59AEE0197F1F700C0000028
:1003C000DA98DB98C3E0DB9A83E00E947C01DB983B
:1003D0008FE19EE40197F1F700C00000C15099F74A
:1003E000DB9A82E00E947C01DB988FE99FE0019715
:1003F000F1F700C0000088E20E94A60188E00E9498
:10040000A60181E00E94A6018FE39FE10197F1F729
:1004100000C0000086E00E94A6018CE0CF910C9401
:10042000A60184B38F7084BB85B3806F85BB0895AC
:1004300023B330E020953095207F332754E0359565
:1004400027955A95E1F780E090E020FF02C08F5F8A
:10045000089535952795019684309105B1F780E090
:10046000089583B3807F803F11F081E0089508955F
:100470000E943102882339F00E94180290E0909384
:10048000FC008093FB0008958F929F92AF92BF92E1
:10049000CF92DF92EF92FF920F931F93CF93DF9350
:1004A000CDB7DEB7C055D1090FB6F894DEBF0FBE89
:1004B000CDBF6B017C014093FE008DEF840F823035
:1004C00078F480916A0090916B00443011F40196A9
:1004D00001C0019790936B0080936A001092FD0019
:1004E00080916A0090916B0064E670E00E941C05A8
:1004F00050916600409165009E012F5F3F4F59016A
:10050000252F332727FD30958A30910578F43F93C6
:100510005F939F938F937F936F93842F992787FD8A
:1005200090959F934F9388E890E00EC03F935F9320
:100530009F938F937F936F93842F992787FD909537
:100540009F934F938BE990E09F938F93BF92AF92CD
:100550000E9452050FB6F894DEBF0FBECDBF80914A
:10056000FE009FEF980F923010F4809367009090F8
:100570006600809067008E01075D1F4FC114D10493
:10058000E104F10409F453C060916A0070916B00BA
:1005900080E090E0A70196010E94300569ED7AE0C5
:1005A000269FC001279F900D369F900D1124909398
:1005B00069008093680031E0831211C0292D332730
:1005C00027FD30953F939F9264E670E00E941C05E2
:1005D0009F938F937F936F938DEA90E01CC02EE3DF
:1005E000289FA001299F500D112424E630E0CA0164
:1005F000B9010E941C05CB01492D552747FD509597
:100600005F939F92B9010E941C059F938F937F93E4
:100610006F938EEB90E09F938F931F930F930E94A5
:1006200052050FB6F894DEBF0FBECDBF1CC031E03F
:10063000892D992787FD9095831205C09F939F92DE
:100640008FEC90E004C09F939F928CED90E09F937D
:100650008F931F930F930E9452050F900F900F904E
:100660000F900F900F900E94BF0160E080E00E9409
:10067000B801C8010E94AC0161E080E00E94B801AD
:10068000C5010E94AC01C05BDF4F0FB6F894DEBF1E
:100690000FBECDBFDF91CF911F910F91FF90EF90D3
:1006A000DF90CF90BF90AF909F908F900895609310
:1006B000610070936200809363009093640040E057
:1006C0000C944402482F6091610070916200809107
:1006D0006300909164000C9444021F93CF93DF93C6
:1006E000C0E0D0E019E01C9FF0011D9FF00D112427
:1006F000E150FF4F85819681A781B0850196A11DAC
:10070000B11D85839683A783B087658176818781B4
:100710009085248130E040E050E00E943005672B56
:10072000682B692B49F4809147019091480101960B
:1007300090934801809347012196C830D10599F6DE
:10074000DF91CF911F91089599E0899FF0011124C5
:10075000E150FF4F518340833383228364831582AA
:10076000168217821086089580916C008F3F49F0A1
:10077000E0916C0089E0E802F0011124E150FF4FA4
:100780001482089520916C002F3FA1F030916C00ED
:1007900029E03203D0011124A150BF4F11969C9340
:1007A0008E9330916C003203F0011124E150FF4F21
:1007B00073836283089599E0899FF0011124E150C9
:1007C000FF4F7183608353834283089519E00FEFD5
:1007D0008091470190914801892BD1F3F89420E052
:1007E00030E0129FD001139FB00D1124A150BF4FD4
:1007F000ED01249614968C911497882359F1FD01EC
:10080000359615964D915D916D917C911897149642
:100810008C9190E0A0E0B0E0481759076A077B0789
:10082000C8F080819181A281B3813881831B9109B5
:10083000A109B10980839183A283B38320936C00C3
:1008400080914701909148010197909348018093CE
:10085000470105C02F5F3F4F2830310511F67894CE
:1008600080916C0087FDB4CF20916C002103F001D2
:100870001124E150FF4F0190F081E02D20916C0098
:100880002103D0011124A150BF4F12968D919C914C
:100890001397099500936C009BCF582F262F842F18
:1008A00095B39F6095BB6AE00E941005E92FF0E0C8
:1008B000E359FF4F808188BB2111C79885B321E0A0
:1008C00030E0052E01C0220F0A94EAF72095206F30
:1008D000282325BB08958FEF87BB18BA84B38F6098
:1008E00084BB85B385BB0895CF938091490190E087
:1008F000019683709927282F80934901882379F1E5
:10090000C1E080914A012813C0E060914B017091D1
:100910004C0180914D0190914E01213051F42AE01B
:1009200030E040E050E00E943005422F6C2F81E023
:100930001AC0223051F424E630E040E050E00E943A
:100940003005422F6C2F82E00EC028EE33E040E0ED
:1009500050E00E943005422F6C2F83E004C040918C
:100960004B0160E080E0CF910C944D0460934B010B
:1009700070934C0180934D0190934E0140934A0136
:1009800008950E94D30187E790E00E94AC010E9485
:1009900011020E9412010E946B040E94FB000E943F
:1009A000070189E490E00E94220184E690E00E9421
:1009B000270120E030E04AE750E064E081E00E9457
:1009C000A40320E030E04CE750E06AE082E00E94BF
:1009D000A40320E030E04DEA50E068E283E00E94AA
:1009E000A40320E030E046EB50E064E184E00E94A4
:1009F000A4032FEF83ED90E3215080409040E1F776
:100A000000C000000E94BF0140E060E070E0CB0148
:100A10000E94440278940E94E60380E090E00895EA
:100A2000991B79E004C0991F961708F0961B881F40
:100A30007A95C9F780950895AA1BBB1B51E107C0A1
:100A4000AA1FBB1FA617B70710F0A61BB70B881F5E
:100A5000991F5A95A9F780959095BC01CD010895ED
:100A6000A1E21A2EAA1BBB1BFD010DC0AA1FBB1FB2
:100A7000EE1FFF1FA217B307E407F50720F0A21B24
:100A8000B30BE40BF50B661F771F881F991F1A9491
:100A900069F760957095809590959B01AC01BD01BB
:100AA000CF010895AEE0B0E0E8E5F5E00C94FA0778
:100AB0000D891E8986E08C831A8309838FEF9FE757
:100AC0009E838D83AE01475E5F4F6F89788DCE0127
:100AD00001960E947405EF81F885E00FF11F1082E6
:100AE0002E96E4E00C941608ACE0B0E0EAE7F5E0FE
:100AF0000C94EC077C016B018A01FC0117821682C1
:100B0000838181FFBDC1CE0101964C01F701938124
:100B1000F60193FD859193FF81916F01882309F47C
:100B2000ABC1853239F493FD859193FF81916F01BB
:100B3000853229F4B70190E00E945C07E7CF512C81
:100B4000312C20E02032A0F48B3269F030F4803276
:100B500059F0833269F420612CC08D3239F0803332
:100B600039F4216026C02260246023C0286021C09F
:100B700027FD27C030ED380F3A3078F426FF06C045
:100B8000FAE05F9E300D1124532E13C08AE0389E88
:100B9000300D1124332E20620CC08E3221F426FD3C
:100BA0006BC1206406C08C3611F4206802C0883600
:100BB00041F4F60193FD859193FF81916F018111BD
:100BC000C1CF982F9F7D9554933028F40C5F1F4F11
:100BD000FFE3F9830DC0833631F0833771F083353D
:100BE00009F05BC022C0F801808189830E5F1F4F2E
:100BF00044244394512C540115C03801F2E06F0E87
:100C0000711CF801A080B18026FF03C0652D70E043
:100C100002C06FEF7FEFC5012C870E9451072C01A6
:100C200083012C852F77222E17C03801F2E06F0E3A
:100C3000711CF801A080B18026FF03C0652D70E013
:100C400002C06FEF7FEFC5012C870E9446072C0181
:100C50002C852068222E830123FC1BC0832D90E06D
:100C600048165906B0F4B70180E290E00E945C0794
:100C70003A94F4CFF50127FC859127FE81915F011D
:100C8000B70190E00E945C0731103A94F1E04F1AEE
:100C900051084114510471F7E5C0843611F08936CA
:100CA00039F5F80127FF07C0608171818281938146
:100CB0000C5F1F4F08C060817181882777FD809588
:100CC000982F0E5F1F4F2F76B22E97FF09C0909579
:100CD0008095709561957F4F8F4F9F4F2068B22E02
:100CE0002AE030E0A4010E948E07A82EA81844C074
:100CF000853729F42F7EB22E2AE030E025C0F22F6E
:100D0000F97FBF2E8F36C1F018F4883579F0B4C062
:100D1000803719F0883721F0AFC02F2F2061B22E15
:100D2000B4FE0DC08B2D8460B82E09C024FF0AC00C
:100D30009F2F9660B92E06C028E030E005C020E164
:100D400030E002C020E132E0F801B7FE07C0608168
:100D50007181828193810C5F1F4F06C06081718118
:100D600080E090E00E5F1F4FA4010E948E07A82E26
:100D7000A818FB2DFF77BF2EB6FE0BC02B2D2E7FA4
:100D8000A51450F4B4FE0AC0B2FC08C02B2D2E7E70
:100D900005C07A2C2B2D03C07A2C01C0752C24FFA2
:100DA0000DC0FE01EA0DF11D8081803311F4297E12
:100DB00009C022FF06C07394739404C0822F867802
:100DC00009F0739423FD13C020FF06C05A2C73143E
:100DD00018F4530C5718732C731468F4B70180E29D
:100DE00090E02C870E945C0773942C85F5CF7314D8
:100DF00010F4371801C0312C24FF12C0B70180E372
:100E000090E02C870E945C072C8522FF17C021FFF1
:100E100003C088E590E002C088E790E0B7010CC00D
:100E2000822F867859F021FD02C080E201C08BE25A
:100E300027FD8DE2B70190E00E945C07A51438F40D
:100E4000B70180E390E00E945C075A94F7CFAA9420
:100E5000F401EA0DF11D8081B70190E00E945C076A
:100E6000A110F5CF332009F451CEB70180E290E014
:100E70000E945C073A94F6CFF7018681978102C001
:100E80008FEF9FEF2C96E2E10C940808FC0105908F
:100E9000615070400110D8F7809590958E0F9F1F7C
:100EA0000895FC016150704001900110D8F78095C1
:100EB00090958E0F9F1F08950F931F93CF93DF93ED
:100EC000182F092FEB018B8181FD03C08FEF9FEF5E
:100ED00020C082FF10C04E815F812C813D8142176E
:100EE00053077CF4E881F9819F012F5F3F4F3983DD
:100EF0002883108306C0E885F985812F0995892B01
:100F000029F72E813F812F5F3F4F3F832E83812F13
:100F1000902FDF91CF911F910F910895FA01AA2789
:100F2000283051F1203181F1E8946F936E7F6E5F2C
:100F30007F4F8F4F9F4FAF4FB1E03ED0B4E03CD0DA
:100F4000670F781F891F9A1FA11D680F791F8A1FBD
:100F5000911DA11D6A0F711D811D911DA11D20D024
:100F600009F468943F912AE0269F11243019305DDE
:100F70003193DEF6CF010895462F4770405D4193CF
:100F8000B3E00FD0C9F7F6CF462F4F70405D4A331C
:100F900018F0495D31FD4052419302D0A9F7EACFE4
:100FA000B4E0A6959795879577956795BA95C9F713
:100FB00000976105710508959B01AC010A2E069406
:100FC0005795479537952795BA95C9F7620F731FBF
:100FD000841F951FA01D08952F923F924F925F92FC
:100FE0006F927F928F929F92AF92BF92CF92DF9239
:100FF000EF92FF920F931F93CF93DF93CDB7DEB79E
:10100000CA1BDB0B0FB6F894DEBF0FBECDBF099431
:101010002A88398848885F846E847D848C849B8488
:10102000AA84B984C884DF80EE80FD800C811B8196
:10103000AA81B981CE0FD11D0FB6F894DEBF0FBEC5
:0A104000CDBFED010895F894FFCF35
:10104A0001640000003C3E016400E803FFC0F9A40B
:10105A00B0999282F8809050686F746F63656C6C77
:10106A002076302E30303100646973743A2025635B
:10107A002025752E30257520256300646973743A1E
:10108A002025632025752E25752025630025752EBC
:10109A002575202563206B7068206D7068002575A2
:1010AA002E2575206B7068202563206D70680030CE
:1010BA00202563206B7068206D70680030206B708B
:0A10CA0068202563206D70680000A7
:00000001FF
