:100000000C942A000C9420010C9447010C94470096
:100010000C9447000C9447000C9447000C94470044
:100020000C9447000C9447000C9449000C94470032
:100030000C9447000C9447000C9447000C94470024
:100040000C9447000C9447000C9447000C94470014
:100050000C94470011241FBECFE5D8E0DEBFCDBF12
:1000600010E0A0E6B0E0E2EAF1E102C005900D92F6
:10007000AC3EB107D9F711E0ACEEB0E001C01D9283
:10008000A135B107E1F70E9406010C94CF080C944A
:1000900000001F920F920FB60F9211242F933F93DF
:1000A0004F935F936F937F938F939F93AF93BF9380
:1000B000EF93FF930E94E603FF91EF91BF91AF9101
:1000C0009F918F917F916F915F914F913F912F9170
:1000D0000F900FBE0F901F90189583B7886083BF55
:1000E0008AEF8CBF89B7826089BF83B7836083BF83
:1000F000089585B5886085BD85B585BD85B5866063
:1001000085BD85E983BD08950E9428050895609105
:10011000ED007091EE008091EF009091F0006F5F24
:100120007F4F8F4F9F4F6093ED007093EE00809351
:10013000EF009093F00020916000222379F4209149
:10014000F5003091F6004091F7005091F800621BE5
:10015000730B840B950B42E00E94820508950E9468
:100160003F02882321F00E9411020E94CE030895CD
:100170008091EC008823C1F06091F1007091F20051
:100180008091F3009091F4002091F5003091F600F9
:100190004091F7005091F800621B730B840B950B94
:1001A0000E94DA031092EC0008958091ED00909186
:1001B000EE00A091EF00B091F0008093F5009093D5
:1001C000F600A093F700B093F8001092F10010929F
:1001D000F2001092F3001092F40010926000089563
:1001E0008091ED009091EE00A091EF00B091F000B1
:1001F0008093F1009093F200A093F300B093F40089
:1002000081E0809360008093EC0008958FEF87BBBE
:1002100084BB18BA15BAFFCF85B78C6085BF85B788
:10022000836085BF8BB7806C8BBF08959093FC0073
:100230008093FB0008959093FA008093F90008954D
:100240001F920F920FB60F9211242F933F934F934B
:100250005F936F937F938F939F93AF93BF93EF932E
:10026000FF93E091FB00F091FC000995FF91EF9165
:10027000BF91AF919F918F917F916F915F914F91BE
:100280003F912F910F900FBE0F901F9018951F92C6
:100290000F920FB60F9211242F933F934F935F93BA
:1002A0006F937F938F939F93AF93BF93EF93FF933E
:1002B000E091F900F091FA000995FF91EF91BF915B
:1002C000AF919F918F917F916F915F914F913F91EE
:1002D0002F910F900FBE0F901F90189580FF02C0B6
:1002E000DC9A01C0DC9881FF02C0DD9A01C0DD9874
:1002F00082FF02C0DE9A01C0DE9883FF02C0DF9A4F
:100300000895DF9808951F93182FDB9A82958F70B8
:100310000E946E01DB98DB9A812F0E946E01DB98B0
:1003200087EC90E00197F1F700C000001F9108955D
:10033000DA980E9483010895DA9A0E948301089551
:10034000EF92FF92CF93DF93E82EE7017E01F92E23
:10035000E70102C00E949C0189918823D9F7DF91AF
:10036000CF91FF90EF9008956295660F660F607CC5
:10037000680F862F80680E949801089581E00E948E
:1003800098018FE39FE10197F1F700C00000089505
:1003900082E00E9498018FE39FE10197F1F700C08E
:1003A000000008951F93D49AD59AD69AD79AD39AD3
:1003B000D29A8FE59AEE0197F1F700C00000DA9823
:1003C000DB9813E0DB9A83E00E946E01DB988FE1FB
:1003D0009EE40197F1F700C00000115099F7DB9AF5
:1003E00082E00E946E01DB988FE99FE00197F1F7B0
:1003F00000C0000088E20E94980188E00E949801F5
:1004000081E00E9498018FE39FE10197F1F700C01E
:10041000000086E00E9498018CE00E9498011F91E4
:10042000089515BA8FE084BB90EF95BB23B315BA3E
:1004300094BB85BB33B330953F7080E090E030FFD4
:1004400002C0382F07C001968430910511F036950F
:10045000F6CF30E022952F7020952F7080E090E04D
:1004600020FD07C001968430910511F02695F8CF44
:1004700080E0932F990F990F9F5F890F089515BA08
:100480008FE084BB90EF95BB23B315BA94BB85BBBB
:1004900083B38F708F3039F4922F907F81E0903F3B
:1004A00019F480E0089581E008950E943F028823B6
:1004B00039F00E94110290E09093FE008093FD00BD
:1004C0000895CF92DF92EF92FF920F931F93DF93E5
:1004D000CF93CDB7DEB7C055D0400FB6F894DEBF8E
:1004E0000FBECDBF6B017C014093FF00842F87506E
:1004F000823078F48091D8009091D900473011F47F
:10050000019601C001979093D9008093D800109272
:1005100000018091D8009091D90064E670E00E94BB
:10052000B8059E01275D3F4F8A309105A8F44DB76D
:100530005EB74C5050400FB6F8945EBF0FBE4DBF33
:10054000EDB7FEB73196ADB7BEB712963C932E937A
:10055000119721E630E014C04DB75EB74C505040C3
:100560000FB6F8945EBF0FBE4DBFEDB7FEB7319624
:10057000ADB7BEB712963C932E93119728E730E0A3
:10058000338322832FE730E03583248377836683A8
:10059000918780878EE790E0938782870E94EE059F
:1005A000EDB7FEB73C960FB6F894FEBF0FBEEDBF99
:1005B0000091FF00C114D104E104F10409F494C0D6
:1005C0006091D8007091D90080E090E0A701960179
:1005D0000E94CC05CA01B90129ED3AE040E050E0A3
:1005E0000E948D0524E630E040E050E00E94CC05FA
:1005F000C9013093DB002093DA00202F23502230F2
:1006000010F40093DC004091DC009E012F5F3F4F0F
:10061000433041F54DB75EB74A5050400FB6F8949D
:100620005EBF0FBE4DBFEDB7FEB73196ADB7BEB7DB
:1006300012963C932E9311972EE830E03383228359
:1006400064E670E00E94B8057583648397838683AF
:100650008EE790E0918780870E94EE05EDB7FEB7A8
:100660003A9677C0AC01440F551F66E0880F991F7A
:100670006A95E1F7841B950BE4E6F0E0BF010E9468
:10068000B8054DB75EB74A5050400FB6F8945EBFFC
:100690000FBE4DBF0DB71EB70F5F1F4FADB7BEB733
:1006A00012963C932E93119781EA90E0D80113960D
:1006B0009C938E931297CB01BF010E94B805F8015D
:1006C00075836483978386838EE790E09187808724
:1006D0000E94EE054DB75EB7465F5F4F0FB6F894C8
:1006E0005EBF0FBE4DBF3AC0802F8350823010F4E2
:1006F0000093DC008091DC009E012F5F3F4F833030
:1007000079F400D000D000D0EDB7FEB73196ADB788
:10071000BEB712963C932E93119783EB90E00EC0D8
:1007200000D000D000D0EDB7FEB73196ADB7BEB760
:1007300012963C932E93119786EC90E093838283DC
:100740008EE790E0958384830E94EE05EDB7FEB7B7
:1007500036960FB6F894FEBF0FBEEDBF80E360E3A0
:100760000E94B401CE0101960E94A00180E361E3E2
:100770000E94B401CE0189960E94A001C05BDF4FA8
:100780000FB6F894DEBF0FBECDBFCF91DF911F91A2
:100790000F91FF90EF90DF90CF900895482F6091D8
:1007A000DD007091DE008091DF009091E0000E94FA
:1007B000610208956093DD007093DE008093DF0096
:1007C0009093E00040E00E9461020895CF93DF9390
:1007D000C0E0D0E0FE0183E0EE0FFF1F8A95E1F755
:1007E000EC0FFD1FED5FFE4F85819681A781B085DF
:1007F0000196A11DB11D85839683A783B08765816E
:10080000768187819085248130E040E050E00E942D
:10081000CC05611571058105910549F480910101AF
:10082000909102010196909302018093010121961B
:10083000C830D10579F6DF91CF91089590E0FC01A1
:1008400073E0EE0FFF1F7A95E1F7E80FF91FED5FF8
:10085000FE4F518340833383228364831582168243
:100860001782108608958091E1008F3F81F080917A
:10087000E100992787FD9095FC01A3E0EE0FFF1F93
:10088000AA95E1F7E80FF91FED5FFE4F1482089576
:100890002091E1002F3F11F12091E100332727FD46
:1008A0003095F90143E0EE0FFF1F4A95E1F7E20FA3
:1008B000F31FED5FFE4F918380838091E1009927C4
:1008C00087FD9095FC01B3E0EE0FFF1FBA95E1F7AD
:1008D000E80FF91FED5FFE4F73836283089590E088
:1008E000FC01A3E0EE0FFF1FAA95E1F7E80FF91F47
:1008F000ED5FFE4F718360835383428308951F939E
:10090000CF93DF931FEF8091010190910201009737
:10091000D1F3F89460E070E0DB0143E0AA0FBB1F65
:100920004A95E1F7A60FB71FAD5FBE4FED012496C4
:1009300014968C911497882359F1FD0135961596DC
:100940002D913D914D915C91189714968C9190E06A
:10095000A0E0B0E0281739074A075B07C8F080819C
:100960009181A281B3812881821B9109A109B109DA
:1009700080839183A283B3836093E100809101011E
:10098000909102010197909302018093010106C0AA
:100990006F5F7F4F6830710509F0BECF789480910A
:1009A000E10087FDB0CF8091E100992787FD909508
:1009B000FC0133E0EE0FFF1F3A95E1F7E80FF91F56
:1009C000ED5FFE4F0190F081E02D8091E1009927CD
:1009D00087FD9095DC0123E0AA0FBB1F2A95E1F764
:1009E000A80FB91FAD5FBE4F12968D919C911397C2
:1009F00009951093E10087CF582F262F842F54306C
:100A0000E8F495B39F6095BB6AE00E94AC05E92FBE
:100A1000F0E0EE51FF4F808188BB222319F088B3AC
:100A20008F6788BB85B321E030E002C0220F331FFF
:100A30005A95E2F72095206F282325BB08958FEF64
:100A400087BB18BA84B38F6084BB85B385BB089518
:100A50001F93809150018F5F80935001882341F054
:100A600011E090914F01891310E0813011F511C010
:100A700060914B0170914C0180914D0190914E011C
:100A80002AE030E040E050E00E94CC0580E060E0E9
:100A900034C060914B0170914C0180914D01909157
:100AA0004E0124E630E040E050E00E94CC0581E0B9
:100AB00023C0823081F460914B0170914C01809190
:100AC0004D0190914E0128EE33E040E050E00E944D
:100AD000CC0582E011C0833099F460914B01709194
:100AE0004C0180914D0190914E0120E137E240E0B0
:100AF00050E00E94CC0583E0612F422F0E94FC044D
:100B00001F91089560934B0170934C0180934D01A8
:100B100090934E0140934F010895629FD001739FBF
:100B2000F001829FE00DF11D649FE00DF11D929F89
:100B3000F00D839FF00D749FF00D659FF00D9927C8
:100B4000729FB00DE11DF91F639FB00DE11DF91FEC
:100B5000BD01CF0111240895991B79E004C0991FAC
:100B6000961708F0961B881F7A95C9F78095089507
:100B7000AA1BBB1B51E107C0AA1FBB1FA617B707C3
:100B800010F0A61BB70B881F991F5A95A9F78095DF
:100B90009095BC01CD010895A1E21A2EAA1BBB1BA2
:100BA000FD010DC0AA1FBB1FEE1FFF1FA217B30739
:100BB000E407F50720F0A21BB30BE40BF50B661F4F
:100BC000771F881F991F1A9469F760957095809513
:100BD00090959B01AC01BD01CF010895AEE0B0E05E
:100BE000E4EFF5E00C94A6080D891E8986E08C835D
:100BF0001A8309838FEF9FE79E838D839E01275E73
:100C00003F4FCE0101966F89788DA9010E94110690
:100C1000EF81F885E00FF11F10822E96E4E00C942E
:100C2000C208ACE0B0E0E7E1F6E00C9498086C0193
:100C30001B018A01FC0117821682838181FFD1C1C9
:100C40002E010894411C511CF6019381F10193FD82
:100C5000859193FF81911F01882309F4BEC18532DC
:100C600039F493FD859193FF81911F01853229F419
:100C700090E0B6010E940E08E7CFEE24FF2420E0AA
:100C80002032B0F48B3269F08C3228F4803251F08B
:100C9000833271F40BC08D3239F0803349F4216016
:100CA0002CC02260246029C0286027C0206125C094
:100CB00027FD2CC0382F30533A3098F426FF08C057
:100CC0008E2D880FE82EEE0CEE0CE80EE30E15C00C
:100CD0008F2D880FF82EFF0CFF0CF80EF30E2062FC
:100CE0000CC08E3221F426FD78C1206406C08C36FB
:100CF00011F4206802C0883649F4F10193FD859112
:100D000093FF81911F01882309F0BACF982F955442
:100D1000933018F09052933028F40C5F1F4FFFE38C
:100D2000F9830DC0833631F0833771F0833509F0D4
:100D300060C022C0F801808189830E5F1F4F42018D
:100D400071E0A72EB12C16C062E0662E712C600EE9
:100D5000711EF8018080918026FF03C06E2D70E027
:100D600002C06FEF7FEFC4012C870E9403085C0173
:100D700083012C852F7717C052E0652E712C600EF1
:100D8000711EF8018080918026FF03C06E2D70E0F7
:100D900002C06FEF7FEFC4012C870E94F8075C014F
:100DA0002C852068830123FD20C008C080E290E0EC
:100DB000B6012C870E940E08FA942C858F2D90E0A6
:100DC000A816B90698F311C0F40127FD859127FFF5
:100DD00081914F0190E0B6012C870E940E082C856E
:100DE000F110FA940894A108B108A114B10461F7B4
:100DF000F1C0843611F0893649F527FF08C0F801A3
:100E000060817181828193810C5F1F4F09C0F8015D
:100E100060817181882777FD8095982F0E5F1F4F25
:100E20004FE6B42EB22297FF09C090958095709539
:100E300061957F4F8F4F9F4FF0E8BF2AA2012AE0B4
:100E400030E00E943A08782E741845C0853731F496
:100E50003FEEB32EB2222AE030E025C099EFB92E42
:100E6000B2228F36C1F0803720F4883509F0B5C042
:100E70000DC0803721F0883709F0AFC002C020E1F3
:100E8000B22AB4FE0BC084E0B82A08C0B4FE09C080
:100E9000E6E0BE2A06C028E030E005C020E130E0F0
:100EA00002C020E132E0B7FE08C0F8016081718124
:100EB000828193810C5F1F4F07C0F80160817181AF
:100EC00080E090E00E5F1F4FA2010E943A08782E4A
:100ED0007418FFE7BF22B6FE0BC02EEFB2227E14BD
:100EE00038F4B4FE07C0B2FC05C08FEEB82202C0D1
:100EF000A72C01C0AE2C8B2D90E0B4FE0DC0FE01DE
:100F0000E70DF11D2081203319F4E9EEBE2209C05E
:100F1000A394B2FE06C004C086789070009709F0D2
:100F2000A3948B2C9924B3FC14C0B0FE0FC0AF1453
:100F300028F4E72CEF0CEA18AF2C08C0E72C06C009
:100F400080E290E0B6010E940E08A394AF14C0F3B3
:100F500004C0AF1410F4FA1801C0FF2484FE0FC0BF
:100F600080E390E0B6010E940E0882FE1FC081FE61
:100F700003C088E590E010C088E790E00DC0C40190
:100F800086789070009791F081FC02C080E201C0E9
:100F90008BE2B7FC8DE290E0B6010E940E0806C01D
:100FA00080E390E0B6010E940E08EA947E14C0F33C
:100FB0007A94F201E70DF11D808190E0B6010E9464
:100FC0000E087720A9F706C080E290E0B6010E94E3
:100FD0000E08FA94FF20C1F737CEF601268137813B
:100FE00002C02FEF3FEFC9012C96E2E10C94B40848
:100FF000FC010590615070400110D8F780959095E4
:101000008E0F9F1F0895FC016150704001900110E8
:10101000D8F7809590958E0F9F1F08950F931F937B
:10102000CF93DF938C01EB018B8181FF1BC082FF8B
:101030000DC02E813F818C819D812817390764F472
:10104000E881F9810193F983E88306C0E885F98591
:10105000802F0995009731F48E819F8101969F839F
:101060008E8302C00FEF1FEFC801DF91CF911F9158
:101070000F910895FA01AA27283051F1203181F10A
:10108000E8946F936E7F6E5F7F4F8F4F9F4FAF4F90
:10109000B1E03ED0B4E03CD0670F781F891F9A1FA3
:1010A000A11D680F791F8A1F911DA11D6A0F711D57
:1010B000811D911DA11D20D009F468943F912AE063
:1010C000269F11243019305D3193DEF6CF0108954B
:1010D000462F4770405D4193B3E00FD0C9F7F6CF7C
:1010E000462F4F70405D4A3318F0495D31FD405244
:1010F000419302D0A9F7EACFB4E0A69597958795DA
:1011000077956795BA95C9F70097610571050895B8
:101110009B01AC010A2E0694579547953795279564
:10112000BA95C9F7620F731F841F951FA01D0895FC
:101130002F923F924F925F926F927F928F929F92E7
:10114000AF92BF92CF92DF92EF92FF920F931F93D5
:10115000CF93DF93CDB7DEB7CA1BDB0B0FB6F89486
:10116000DEBF0FBECDBF09942A88398848885F84C6
:101170006E847D848C849B84AA84B984C884DF8037
:10118000EE80FD800C811B81AA81B981CE0FD11D1B
:101190000FB6F894DEBF0FBECDBFED010895F894F1
:0211A000FFCF7F
:1011A2000164697374616E63653A20257520257543
:1011B2002E3025752025750064697374616E636530
:1011C2003A2025752025752E257520257500257553
:1011D2002E2575202575206B70682020206D706883
:1011E2000025752E257520206B7068202575206DD1
:1011F2007068004572726F72202575206B706820CE
:1012020020206D7068004572726F7220206B7068CA
:10121200202575206D706800E803640003640000F7
:0C12220000FFC0F9A4B0999282F88090FF
:00000001FF
